:020000040800F2
:10000000C00600209D0100080F1300080912000817
:100010000D1300082D030008B519000800000000AA
:10002000000000000000000000000000391300087C
:100030002F03000800000000111300083B13000804
:10004000B7010008B7010008B7010008B7010008B0
:10005000B7010008B7010008B7010008B7010008A0
:10006000B7010008B7010008B7010008B701000890
:10007000B7010008B7010008B7010008B701000880
:10008000B7010008B7010008B7010008B701000870
:10009000B7010008B7010008B7010008B701000860
:1000A000B7010008B7010008B7010008B701000850
:1000B000B7010008B701000819140008B7010008CB
:1000C000B7010008B7010008B7010008B701000830
:1000D000B7010008A1190008B7010008B70100081E
:1000E000B7010008B7010008B7010008B701000810
:1000F000B70100082D140008B7010008B701000877
:10010000B7010008B7010008B7010008B7010008EF
:10011000B7010008B7010008B7010008B7010008DF
:10012000B7010008B7010008B7010008B7010008CF
:10013000B7010008B7010008B7010008B7010008BF
:10014000B7010008B7010008B7010008B7010008AF
:10015000B7010008B7010008B7010008B70100089F
:10016000B7010008B7010008B7010008B70100088F
:10017000B7010008B7010008B7010008000000003F
:10018000B7010008B7010008DFF80CD000F07AF8DA
:1001900000480047C91E0008C006002006488047E6
:1001A00006480047FEE7FEE7FEE7FEE7FEE7FEE75C
:1001B000FEE7FEE7FEE7FEE7C51300088901000839
:1001C0002DE9F05F0546002092469B46884606468C
:1001D000814640241BE0284641464746224600F01F
:1001E00041F853465A46C01A914110D31146184659
:1001F000224600F028F82D1A67EB01084F462246E8
:100200000120002100F01FF817EB00094E41201ECD
:10021000A4F10104DFDC484631462A464346BDE8E6
:10022000F09FD2B201E000F8012B491EFBD27047CB
:100230000022F6E710B513460A4604461946FFF7B2
:10024000F0FF204610BD202A04DB203A00FA02F11C
:10025000002070479140C2F1200320FA03F31943B4
:1002600090407047202A04DB203A21FA02F0002156
:10027000704721FA02F3D040C2F1200291400843B6
:1002800019467047064C074D06E0E06840F0010350
:1002900094E8070098471034AC42F6D3FFF778FF94
:1002A000642E0008842E000870B58C1810F8015BCD
:1002B00015F0070301D110F8013B2A1106D110F8FF
:1002C000012B03E010F8016B01F8016B5B1EF9D103
:1002D0002B0705D40023521E0DD401F8013BFAE789
:1002E00010F8013BCB1A921C03E013F8015B01F8F4
:1002F000015B521EF9D5A142D8D3002070BD000089
:1003000010B501220549064800F0CAFE054800F074
:1003100095FC05484068BDE81040004710000020EB
:10032000B80100203801002040000020FEE770479F
:10033000704790F83510022903D0802141650120D3
:100340007047052180F835100068016821F001012F
:1003500001600020704700002DE9F84FDFF87CB104
:1003600000224FF001084FF0030A4FF00F090BF184
:10037000040E00BF0B6808FA02F42340A3426ED1BA
:100380004D68022D01D0122D0ED1D50800EB850C41
:10039000DCF820505607F70E09FA07F6B5430E6948
:1003A000BE402E43CCF82060066855000F790AFA4B
:1003B00005FC07F0030726EA0C06AF403743076049
:1003C0004E68012E05D0022E03D0112E01D0122E20
:1003D0000ED18668CF6826EA0C06AF4037438760A7
:1003E0004668A6430C79C4F3001494403443446037
:1003F000C6688C6826EA0C06AC403443C4604C687E
:10040000E40065D5364C256845F4804525602468B0
:1004100022F0030504F480440094324C2E19D6F8DF
:10042000084895072F0F09FA07F5AC432E4DA8424F
:1004300001D1002524E02D4DA84201D101251FE066
:100440002B4DA84201D102251AE02A4DA84201D124
:10045000032515E0284DA84202D1042510E037E01D
:10046000264DA84201D105250AE0254DA84201D11B
:10047000062505E0234DA84201D1072500E0082507
:10048000BD402543C6F80858DBF800405D464E687D
:100490009C43F60300D51C432C60DEF800407546F3
:1004A0004E689C43B60300D51C432C600B4D0835A9
:1004B0002C684E689C43F60200D51C432C60074D07
:1004C0000C352C684E689C43B60200D51C432C604A
:1004D000521C102AFFF44EAFBDE8F88F003C0140DB
:1004E0004438024000300140000002400004024055
:1004F00000080240000C02400010024000140240BC
:1005000000180240001C024001488068704700004B
:100510000000002002488168027811448160704721
:10052000000000200B4810B5016841F40071016023
:10053000016841F480610160016841F480710160EB
:10054000032000F06FF8002000F006F800F024F817
:10055000002010BD003C024070B50D4D04464FF424
:100560007A712878B1FBF0F00A490968B1FBF0F024
:1005700000F0E0FA48B9102C07D200222146501EA4
:1005800000F030F800206C6070BD012070BD0000EC
:10059000000000200C0000200A4808B5016841F462
:1005A00080410160006800F4804000900548001F11
:1005B000016841F080510160006800F080500090B7
:1005C00008BD000044380240002809DB00F01F028B
:1005D000012191404009800000F1E020C0F80011A5
:1005E00070470000F0B40E4B1B680C46C3F30223A7
:1005F000C3F10705042D00D90425191D072901D2CF
:10060000002300E0DB1E012606FA05F1491E214009
:1006100099409E40761E16403143F0BC01F0F6B979
:100620000CED00E0064900F0070208684FF6FF03F2
:10063000184040EA0220034A104308607047000057
:100640000CED00E00000FA052DE9F0470E4605002C
:1006500065D0DFF81481D8F80000F7B200F00F0081
:10066000B04207D288F80070D8F8000000F00F0000
:10067000B04254D128683D4C810712D5400703D5BC
:10068000206840F4E05020602878000703D52068F7
:1006900040F4604020602068A96820F0F000084322
:1006A00020602878C0072DD03049686808390128B3
:1006B00012D0022813D0032811D009688907002915
:1006C0002DDA216821F0030101432160FFF71CFFAF
:1006D000814641F2883A0EE009688903EFE709682C
:1006E0008901ECE7FFF710FFA0EB0901514502D9A2
:1006F0000320BDE8F0872068696800F00C00B0EBCB
:10070000810FEFD1D8F80010404601F00F01B1423F
:1007100007D90770006800F00F00B04201D0012037
:10072000E7E72878400705D52068E96820F4E0501D
:10073000084320602878000706D52068296920F43E
:10074000604040EAC100206000F036F82168084AA5
:10075000C1F30311515CC840064908600020FFF74F
:10076000FBFE0020C5E70000003C024008380240C4
:10077000E82D00080C0000200448054900680968BD
:10078000044AC1F38221515CC84070470C0000202C
:1007900008380240F82D0008044805490068096837
:1007A000044AC1F34231515CC84070470C0000203C
:1007B00008380240F82D0008154810B5006810F000
:1007C0000C02144813D04110042A0FD0082A0ED16D
:1007D0000F4C241F2268236802F03F025B0207D5FA
:1007E0002068C0F38810A0FB010106E0084610BD98
:1007F0002168C1F38811A1FB00010023FFF7E0FC91
:100800002168C1F30141491C4900B0FBF1F010BD62
:10081000083802400024F4002DE9F84F050076D096
:100820002878DFF8F8B2BE4CC00749D0DBF80010DA
:100830005846C1F38101012908D00068C0F3810046
:1008400002280AD1201D0068400206D520688003D6
:1008500036D568680028E2D032E06868B0F5803F9D
:1008600010D0B0F5A02F206810D020F48030206088
:10087000206820F4802020606868A0B1FFF744FE63
:1008800006460CE0206840F48030F4E740F4802015
:100890002060F7E7FFF738FE801B642873D82068D4
:1008A0008003F7D50CE0FFF72FFE064605E000BFFA
:1008B000FFF72AFE801B6428F0D820688003F7D455
:1008C0002878DFF8608280074FF000093ED5DBF81A
:1008D0000010584611F00C0F09D00068C0F38100D9
:1008E00002280BD18D48001F0068400206D4206802
:1008F000800715D5E868012809D111E0E868B8B18A
:100900000120C8F80000FFF7FFFD064605E002E100
:10091000FFF7FAFD801B0228C0D820688007F7D5B2
:100920002068296920F0F80040EAC10020600DE04D
:10093000C8F80090FFF7E8FD064604E0FFF7E4FD85
:10094000801B02281FD820688007F7D4287800076A
:1009500022D5724E744869696C3671B1012101600B
:10096000FFF7D2FD074604E0FFF7CEFDC01B0228CB
:1009700009D830688007F7D50EE0C0F80090FFF77F
:10098000C3FD074605E083E0FFF7BEFDC01B02285C
:100990007ED830688007F7D42878400768D5DFF81C
:1009A0007CA100270AF1380ADAF80000C0000BD455
:1009B000DAF8001041F08051CAF80010DAF80000AF
:1009C000012700F080500090584E3068C00510D4C8
:1009D000306840F480703060FFF796FD009005E0CD
:1009E000FFF792FD0099401A022851D83068C005DF
:1009F000F6D54A4EA868683601280FD00528306819
:100A000010D020F001003060306820F00400306029
:100A1000A868B8B1FFF778FD00900FE0306840F0AB
:100A20000100F4E740F004003060F7E7FFF76CFDE9
:100A30000099411A41F28830814264D830688007B9
:100A4000F4D50EE0FFF760FD009007E0FFF75CFDD6
:100A50000099411A41F28830814254D830688007A9
:100A6000F4D42FB1DAF8001021F08051CAF8001048
:100A7000A869C0B3DBF80010C1F3810102294AD094
:100A80000228484607D0C8F86000FFF73DFD00E0A7
:100A900039E005463AE04746C8F86000FFF734FD04
:100AA000064604E0FFF730FD801B02282BD82068A3
:100AB0008001F7D4D5E907010843A96A1C4A49080F
:100AC00002EB01416A6A41EA8211084395F82C1051
:100AD00040EA01611148001F016001203866FFF7FC
:100AE00013FD054605E014E0FFF70EFD401B02284C
:100AF00009D820688001F7D50BE000BFFFF704FD9F
:100B0000401B022802D90320BDE8F88F206880012D
:100B1000F4D40020F8E70120F6E70000083802408E
:100B20000038024000004742800E474200700040FB
:100B30000000FFFF10B5401EB0F1807F01D30120FF
:100B400010BD4FF0E02460610F21601700F05EFFE0
:100B50000020A06107202061002010BD7047704771
:100B600070B590F83C20012A19D0012400F83C4FC0
:100B70000222427050F83C3C5A689D6822F0700690
:100B80000A684968324325F0800529435A6050F8C5
:100B90003C2C9160447000210170084670BD022019
:100BA00070BD10B5040003D094F83D0010B107E00B
:100BB000012010BD002084F83C00204600F00CF815
:100BC000022084F83D00211D206800F035FC012042
:100BD00084F83D00002010BD08B5154A016815488D
:100BE00091420ED1016841F00401016000680022C9
:100BF00000F00400009011461E20FFF7F3FC1E20B9
:100C000010E00D4A914211D1016841F480710160F8
:100C10000068002200F48070009011462D20FFF73C
:100C2000E1FC2D20BDE80840FFF7CEBC08BD000068
:100C30000008004040380240002000400168CA68B7
:100C400042F00102CA600068816801F007010629CC
:100C500003D0016841F0010101600020704770B5C8
:100C6000044690F83C00012817D0012584F83C5038
:100C7000022084F83D002068826822F0770222F486
:100C80007F4282600868502830D00DDC20284DD08B
:100C900005DC98B310283BD148E0022070BD302815
:100CA00044D0402834D139E0602828D0702806D0BC
:100CB000B0F5805F2CD0B0F5005F29D10AE0CB6899
:100CC000D1E90121206800F01BFC2068816841F017
:100CD000770109E0CB68D1E90121206800F010FC20
:100CE0002068816841F48041816011E0CA684968E8
:100CF000206800F017FC5021206807E016E0CA6861
:100D00004968206800F01FFC6021206800F002FCA8
:100D100084F83D50002084F83C0070BDCA684968E2
:100D2000206800F0FFFB40212068EFE722680146C1
:100D30001046EBE7704770B50446006801694FF054
:100D40000005C943890715D4C168C943890711D46F
:100D5000E91E016101202077206880698007204614
:100D600002D0FFF7E7FF04E000F098F8204600F01B
:100D700096F8257720680169C943490717D4C168E7
:100D8000C943490713D46FF00401016102202077A1
:100D90002068806910F4407F204602D0FFF7CAFF28
:100DA00004E000F07BF8204600F079F82577206811
:100DB0000169C943090716D4C168C943090712D498
:100DC0006FF008010161042020772068C069800766
:100DD000204602D0FFF7AEFF04E000F05FF82046A7
:100DE00000F05DF8257720680169C943C90617D46A
:100DF000C168C943C90613D46FF01001016108200E
:100E000020772068C06910F4407F204602D0FFF7A9
:100E100091FF04E000F042F8204600F040F825770A
:100E200020680169C943C90708D1C168C943C90716
:100E300004D1891E0161204600F032F82068016962
:100E4000C943090609D4C168C943090605D46FF02E
:100E5000800101612046FFF781FE20680169C943D6
:100E6000490609D4C168C943490605D46FF0400159
:100E70000161204600F015F820680169C943890620
:100E80000BD4C168C943890607D46FF02001016102
:100E90002046BDE87040FFF762BE70BD70477047E6
:100EA00070477047704710F8391F40780843704703
:100EB00070B5026804461068D168536910F00F0FCE
:100EC00050D003F0010501F4907635435DD0C207A0
:100ED00005D0CA0503D5E26B42F00102E263420786
:100EE00005D5DA0703D0E26B42F00202E263820723
:100EF00005D5DA0703D0E26B42F00402E263020791
:100F000005D5DA0703D0E26B42F00802E263E26B38
:100F1000002A33D0800604D5880602D5204600F08A
:100F20003AFB20684069E16BC0F38010090700D4E8
:100F300028B3204600F021FB2068416949061AD5F4
:100F4000416921F040014161606BA0B11B4901651D
:100F5000606BFFF7EEF9002810D0606B016DBDE803
:100F600070400847830610D58B060ED52046BDE895
:100F7000704000F010BB2046FFF794FF70BD204684
:100F8000FFF790FF0020E06370BD030606D50B0657
:100F900004D52046BDE8704000F09EBC4006F3D565
:100FA0004806F1D5D168204621F04001D1602021CA
:100FB00084F8391000F027F970BD00006B150008A7
:100FC00070B5040004D094F83900002510B106E093
:100FD000012070BD84F83850204600F023F824200A
:100FE00084F839002068C16821F40051C1602046AE
:100FF00000F01CFB2068016921F490410161206828
:10100000416921F02A0141612068C16841F4005121
:10101000C160E563202084F8390084F83A0000209C
:1010200070BD000010B586B0044614216846FFF775
:10103000FFF818492068884229D11748016841F013
:1010400010010160006800F010000590124814388B
:10105000016841F0010101600068694600F001008B
:1010600005904FF4C0600090022001900120029092
:1010700003200390072004900848FFF76DF9002231
:1010800011462520FFF7AEFA2520FFF79DFA06B09E
:1010900010BD000000100140443802400000024032
:1010A00090F83A30202B22D1F9B1F2B190F83830D3
:1010B000012B1CD081628285C2850021C16322225E
:1010C00080F83A2080F838100168CA6842F48072CB
:1010D000CA6001684A6942F001024A610068C16859
:1010E00041F02001C16000207047012070470220BC
:1010F0007047000030B50068114988420CD1114892
:1011000041880A0408D402464C0412784FF00003C8
:1011100006D50A2A01D0438030BD41F400410DE0DC
:101120000D2A09D0C1F30D04074D491C89B22A5577
:101130004180C729EFD830BD41F48041418030BDA6
:101140000010014010000020F80100202DE9F843B4
:10115000044690F839001F4616460D46202850D107
:10116000A5B19EB194F8380001284AD0012084F836
:1011700038004FF00008C4F83C80212084F8390082
:10118000FFF7C2F9A6848146E68426E00120BDE887
:10119000F883E08C401EE084A0684B46B0F5805F89
:1011A0004FF000024FF080012046009703D000F07E
:1011B000C4FBE8B90DE000F0C0FBC8B9288821687D
:1011C000C0F308004860206908B16D1C05E0AD1C43
:1011D00003E0216815F8010B4860E08C0028D8D1A5
:1011E0004B46002240212046009700F0A6FB08B1A4
:1011F0000320CCE7202084F8390084F838800020D0
:10120000C5E70220C3E77047FEE70000094808B5BC
:10121000016841F080010160016801F080010091E6
:10122000016841F001010160006800F001000090D8
:1012300008BD0000303802400B4810B50949016074
:1012400053214160002140F2E732C0E902120161FE
:101250008161FFF7A6FC002803D0BDE81040FFF72E
:1012600067B810BD002000407801002010B586B09E
:1012700000241748009401940294039404941349A1
:101280000594016042F2D001C0E901144FF47A7173
:10129000C0E903148461FFF784FC08B1FFF748F844
:1012A0004FF48050009069460948FFF7D8FC08B118
:1012B000FFF73EF8049404A905480594FFF750FC95
:1012C000002801D0FFF734F806B010BD0008004038
:1012D000380100200C4810B50A4901604FF4E13193
:1012E0004160002181600C22C160C0E9041281616B
:1012F000C161FFF765FE002803D0BDE81040FFF78D
:1013000017B810BD00100140B8010020FEE770477B
:101310007047000010B50648FFF7C5FD2028FAD138
:10132000012204490248FFF7BBFE0028F8D110BD96
:10133000B8010020100000207047FFF7EBB8000054
:1013400030B593B030216846FEF772FF14210CA827
:10135000FEF76EFF19480025016841F080510160D9
:10136000006800F0805011901548016841F48041F8
:1013700001600068022400F4804011900120009078
:10138000000401908001CDE9064008AA0420A821AC
:1013900082E813000B906846FFF73EFA0CA90F2075
:1013A00081E831004FF4A0500F90E0021090052129
:1013B0000CA8FFF749F913B030BD000040380240D7
:1013C000007000401048016841F4700101600F484E
:1013D000016841F0010101600C4A002108321160EE
:1013E00002680B4B1A400260031D0A4A1A60026829
:1013F00022F48022026005480C3001600249580640
:10140000803908607047000088ED00E00038024035
:10141000FFFFF6FE1030002410B500F0CDFABDE855
:1014200010400148FFF787BC380100200148FFF752
:1014300082BC000078010020F0B50268254C264DE2
:10144000264E274F274B4FF0804CA04209D06045D5
:1014500007D0A84205D0B04203D0B84201D098428C
:1014600004D122F0700E4A6842EA0E02A0421BD05C
:10147000604519D0A84217D0B04215D0B84213D059
:10148000984211D0184DA8420ED0184DA8420BD04A
:10149000174DA84208D0174DA84205D0164DA842B6
:1014A00002D0164DA84203D122F44075CA682A43DF
:1014B0004D6922F080022A4302608A68C2620A688B
:1014C0008262A04201D0984201D1096901630121E1
:1014D0004161F0BD000001400004004000080040F0
:1014E000000C004000040140004001400044014065
:1014F0000048014000180040001C0040002000404F
:1015000010B5846842EA032224F47F440A4322434C
:10151000826010BD826822F070020A4342F0070127
:101520008160704710B5036A046A24F00104046204
:10153000846924F0F00444EA021423F00A020A4306
:101540008461026210BD10B5036A23F010030362C8
:101550008369046A23F4704343EA023224F0A0034F
:1015600043EA01118261016210BD10B5806B002158
:10157000C185C184FFF796FC10BD0168CA6822F4DA
:101580009072CA6001684A6922F001024A61202112
:1015900080F83A10704710B590F83A10222901D01F
:1015A000022010BD8168B1F5805F11D0016900296A
:1015B00001681FD0496801F07F03816A4A1C82627A
:1015C0000B70C18D491E0904090CC18518D02BE090
:1015D0000269816A002A0268526805D0D2B20A8084
:1015E000816A491C8162ECE7C2F308020A80816AC1
:1015F000891CF7E74A68816A4B1C83620A70E0E73E
:101600000168CA6822F02002CA600168CA6822F430
:101610008072CA6001684A6922F001024A61202191
:1016200080F83A10FFF766FD002010BD2DE9F0416B
:10163000044600680169E26821F4405111430161E8
:101640002169A068E269084361691143226808437F
:10165000D16849F20C6399430143D1602068416924
:10166000A26921F4407111434161E2696425B2F538
:10167000004F9748974922684FF032083FD08A427E
:1016800001D082427CD1FFF787F800EBC00101EB6B
:10169000001061688900B0FBF1F6FFF77DF800EB00
:1016A000C00101EB001061688900B0FBF1F0B0FBF4
:1016B000F5F06FF01801484306EB800108EB0110CC
:1016C000B0FBF5F000F0F006FFF766F800EBC001A4
:1016D00001EB001061688900B0FBF1F0B0FBF5F0A0
:1016E00006EB0016FFF758F800EBC00101EB001005
:1016F00061688900B0FBF1F7FFF74EF8D2E08A424B
:1017000001D082423DD1FFF747F800EBC00101EB69
:10171000001061684900B0FBF1F0B0FBF5F0060184
:10172000FFF73AF800EBC00101EB001061684900D7
:10173000B0FBF1F7FFF730F800EBC00101EB001050
:1017400061684900B0FBF1F0B0FBF5F06FF01801F3
:10175000484307EB800108EBC100B0FBF5F000F057
:10176000F80006EB4006FFF717F800EBC00101EBAD
:10177000001061684900B0FBF1F7FFF70DF83CE09D
:1017800055E0FEF7F9FF00EBC00101EB00106168C6
:101790004900B0FBF1F0B0FBF5F00601FEF7ECFFFD
:1017A00000EBC00101EB001061684900B0FBF1F7EC
:1017B000FEF7E2FF00EBC00101EB00106168490099
:1017C000B0FBF1F0B0FBF5F06FF01801484307EB08
:1017D000800108EBC100B0FBF5F000F0F80006EB6B
:1017E0004006FEF7C9FF00EBC00101EB0010616885
:1017F0004900B0FBF1F7FEF7BFFF00EBC00101EBC2
:10180000001061684900B0FBF1F0B0FBF5F06FF03B
:101810001801484307EB800108EBC100B0FBF5F06D
:1018200000F00700216830448860BDE8F081FEF7D1
:10183000A3FF00EBC00101EB001061688900B0FB61
:10184000F1F6FEF799FF00EBC00101EB00106168B3
:101850008900B0FBF1F0B0FBF5F06FF018014843E0
:1018600006EB800108EB0110B0FBF5F000F0F0068C
:10187000FEF782FF00EBC00101EB001061688900F8
:10188000B0FBF1F0B0FBF5F006EB0016FEF774FFCD
:1018900000EBC00101EB001061688900B0FBF1F7BB
:1018A000FEF76AFF00EBC00101EB001061688900E0
:1018B000B0FBF1F0B0FBF5F06FF01801484307EB17
:1018C000800108EB0110B0FBF5F000F00F00A9E774
:1018D000001401400010014090F83910212901D076
:1018E000022070478168B1F5805F016A0BD04A1C05
:1018F0000262026809785160C18C491E0904090C12
:10190000C1840ED017E009880268C1F30801516054
:1019100001690029016A02D0491C0162ECE7891CB7
:10192000FBE70168CA6822F08002CA600068C168EB
:1019300041F04001C160002070472DE9F041984618
:1019400017460E460446069D1DE0681C1BD02DB1AF
:10195000FEF7DAFDA0EB0800A84214D92068C168A0
:1019600021F4D071C1602068416921F00101416119
:10197000202084F8390084F83A00002084F83800E8
:101980000320BDE8F0812068006836EA000004D03A
:101990000020B842D9D00020F3E70120F9E7000089
:1019A00010B50348FFF784FABDE81040FFF7B2BC5A
:1019B000B8010020FEE7000010B50A4C2068C0689E
:1019C000C043C00709D1084800698047216800204A
:1019D000486221686420C862E06021686FF00100FD
:1019E000086110BD38010020400000200FB4054BF5
:1019F00010B503A9044A029800F028F810BC5DF85D
:101A000014FB0000B11E0008340100200907090E74
:101A1000002804DB00F1E02080F80014704700F09B
:101A20000F0000F1E02080F8141D704702E008C8A4
:101A3000121F08C1002AFAD170477047002001E048
:101A400001C1121F002AFBD1704700002DE9FF4F92
:101A50008DB00F460546002606E025280BD0DDE9AF
:101A60000F1290476D1C761C28780028F5D111B014
:101A70003046BDE8F08F0024A246A1460122EC4981
:101A800000E0044315F8013F203B02FA03F008424E
:101A9000F7D128782A2810D06FF02F022878A0F1EB
:101AA0003001092914D80AEB8A0102EB410144F004
:101AB000020400EB010A6D1CF0E701CF5FEA000AA7
:101AC00003D544F40054CAF1000A44F002046D1C2A
:101AD00028782E2817D115F8010F44F004042A287D
:101AE0000ED06FF02F022878A0F1300109290AD812
:101AF00009EB890102EB410100EB01096D1CF2E7E2
:101B000057F8049B6D1C28786C280FD006DC4C28F5
:101B100017D068280DD06A2814D104E0742810D09A
:101B20007A280FD10DE044F400140AE044F4801444
:101B300001E044F440146978814202D104F5801434
:101B40006D1C6D1C2A786E2A1FD00CDC632A31D0E4
:101B500004DC002A8BD0582A11D1A3E0642A68D073
:101B6000692A0CD165E0732A2ED004DC6F2A73D069
:101B7000702A04D19BE0752A6FD0782A6ED0104667
:101B8000DDE90F129047761C50E1C4F302500228A1
:101B900006D0032809D0042801CF09D0066045E10A
:101BA00001CFF117C0E9006140E101CF06803DE1BE
:101BB00006703BE117F8040B8DF8000000208DF84B
:101BC0000100EB46012003E057F804BB4FF0FF3063
:101BD00061074FF0000102D40DE008F101018846D1
:101BE00049450FDA8045F8DB1BF808100029F4D1CD
:101BF00008E008F1010188468142FADB1BF8081071
:101C00000029F6D1DDE90F23AAEB08008146214621
:101C100000F036F9304400EB080604E0DDE90F126D
:101C20001BF8010B9047B8F10108F7D2214648464E
:101C3000F7E00A21C4F302534FF0000B0891022B86
:101C400004D001CFC117032B09D00AE0FF1D27F0F4
:101C50000707F7E8020108E032E01FE020E000B2E9
:101C6000C117042B01D140B2C117031E71F100034B
:101C700007DA4FF0000CD0EB0C006CEB01012D23C8
:101C800002E0230504D52B238DF82430012303E043
:101C9000E30701D02023F7E7984658E00A2110E037
:101CA00010210EE010204FF0000B08900CE01021E6
:101CB0004FF0000B44F004044FF00809089103E0D2
:101CC00008214FF0000B0891C4F30253022B04D0FB
:101CD00001CF0021032B06D006E0FF1D27F00707E8
:101CE000F7E8020103E080B2042B00D1C0B24FF04C
:101CF000000823072BD5702A07D0DDF820C08CF010
:101D0000100C5CEA0B0C05D00EE040238DF824305B
:101D1000012308E050EA010306D030238DF8243077
:101D20008DF8252002239846DDF820C08CF0080CA1
:101D30005CEA0B0C0BD150EA010301D1630706D515
:101D400030238DF824304FF00108A9F10109582AF9
:101D500004D038A20B9208AA0A920BE03AA2F9E743
:101D60005B46089AFEF72CFA0B9B9B5C0A9A521E64
:101D70000A92137050EA0102F2D10A98ADEB00000A
:101D800000F1200B600702D524F4803401E04FF00D
:101D90000109D94502DDA9EB0B0000E0002000EBB2
:101DA0000B0141440890AAEB010AE00306D4DDE9E7
:101DB0000F232146504600F063F806444FF0000917
:101DC00008E009A911F80900DDE90F12904709F1AF
:101DD0000109761CC145F4DBE0030CD5DDE90F23D6
:101DE0002146504600F04CF8064404E0DDE90F12AD
:101DF00030209047761C0899481E08900029F5DC91
:101E000008E00A980A990078491C0A91DDE90F1246
:101E10009047761CBBF10001ABF1010BF1DC2146D0
:101E20005046DDE90F2300F019F806446D1C1BE64F
:101E300009280100303132333435363738396162A0
:101E40006364656600000000303132333435363764
:101E50003839414243444546000000002DE9F04135
:101E6000044600251E461746880404D405E039467A
:101E70002020B0476D1C641EF9D52846BDE8F081CE
:101E80002DE9F041044600251E469046C80301D5C1
:101E9000302700E02027880404D505E04146384675
:101EA000B0476D1C641EF9D52846BDE8F0810000DE
:101EB00013B54FF6FF73012269460248FFF746F952
:101EC00000981CBDB8010020FEF72CFBFFF738FA84
:101ED000FFF79CF9FFF7CAF9FFF7FCF9FFF7ACF938
:101EE0000248FEF7ABFEFEF70BFAFEE77801002092
:101EF0000068704770B596B0054614AB01AA03A9F7
:101F000000F0DEF9002824D18DF84C001D4C042689
:101F100015E000BF216806EBC00014AB08586A4604
:101F20000BA900F0CDF9002813D103A90BA800F0EC
:101F3000FAFB80B19DF84C00401C8DF84C00217DCF
:101F4000C0B28142E6D8207D9DF84C1088420ED167
:101F5000042016B070BD9DF800009DF80410884262
:101F600001D90220F5E79DF84C00A075EBE713A915
:101F7000284600F05DFA0028EBD19DF84C00607512
:101F80000020E6E7400000202DE9F0417F4C9AB0A8
:101F9000A57D207DA8427DD90421206801EBC501E3
:101FA00019AB405810AA11A900F08AF911A978A01C
:101FB000FFF71CFD00270DF1180833E0208B0121ED
:101FC000B940084217D0222173A0FFF70FFD384611
:101FD00000F098FA011971A02431FFF707FD2221C2
:101FE0006DA0FFF703FD384600F08CFA2044243042
:101FF00048F827000CE0384600F084FA2044416A93
:1020000048F82710E07D08B365A000BFFFF7EEFC9D
:102010009DF84000401E874202D063A0FFF7E6FC17
:102020007F1CFFB29DF840008742C7D35FA0FFF737
:10203000DDFC00F09FFA607D0B2814D2DFE800F091
:10204000080D31384048525E6B78880058A0DDE7B3
:10205000206850F83500804704E0206850F83510BB
:1020600006988847064600F05FFA9DF8640001284C
:102070007DD050A0FFF7BAFC94F8EC0000280DD0FA
:10208000D4F8F0100A20B1FBF0F200FB1212B1FB01
:10209000F0F100E002E048A0FFF7A8FC1AB0BDE8AC
:1020A000F081206850F83520DDE906019047D9E736
:1020B000206806AE50F8353096E807009847D1E71B
:1020C000206806AE50F8355096E80F00A847C9E7DB
:1020D0000A980090206806AE50F8355096E80F0038
:1020E000A847BFE7DDE90A01CDE90001206806AE97
:1020F00050F8355096E80F00A847B3E70AAB06AE94
:1021000093E807008DE80700206850F8355096E8FE
:102110000F00A847A6E70AAE96E80F008DE80F006B
:10212000206806AE50F8355096E80F00A84799E7AA
:102130000BAE96E80F0001AE86E80F000A980090FB
:10214000206806AE50F8355096E80F00A84789E79A
:102150000CAE96E80F0002AE86E80F00DDE90A013A
:10216000CDE90001206806AE50F8355000E003E0EC
:1021700096E80F00A84775E7E07D314618B116A034
:10218000FFF734FC78E717A0FAE7000040000020D2
:102190000D0A257328000000256300002573000048
:1021A00030582558000000002C00000029000000D5
:1021B000256C64003B0D0A0046756E6374696F6E92
:1021C0002052756E2054696D653A25642E25316460
:1021D0006D730D0A000000003D305825583B0D0A74
:1021E000000000003D256C753B0D0A00F0B504466B
:1021F000002007460646054623782C2B03D0292BC2
:1022000004D01BB103E015B9012700E015B31EB1DE
:10221000222B2BD0F7B92FE0A3F1300CBCF1090F22
:1022200019D92D2B17D02B2B15D0A3F1610CBCF194
:10223000050F10D9A3F1410CBCF1050F0BD9582B98
:1022400009D0782B07D0222B0CD0202B1DD02C2B83
:102250001BD0FF260CE05FB9612B00D3203B01F8B7
:10226000013B12E027B9012635460EE0002567B193
:1022700000230B701670F0BD3DB15C2B02D1401CE9
:10228000C0B2641C237801F8013B401CC0B2641C3E
:10229000B2E730B5002515700AE001F8014B14785B
:1022A000401C641CE4B214709C4201D3012030BD78
:1022B0000478202C01D0002CEFD10D70002030BD0F
:1022C0002DE9FF4F002582B0984604462F462E4642
:1022D0004FF0010BAA462A46A94615E0202910D046
:1022E00002F07F03052B0CD202B9802202F07F039B
:1022F000042B01D12A290AD1521C0DF80310D2B2A5
:1023000001E0852A04D0401C01780029E6D162B1A1
:1023100002F07F0244A10DF80290684600F003FA33
:1023200038B1012188F8001000224FF00008234640
:1023300014E088F80090F7E708F1010000F0FF08CA
:1023400013F8010F202801D02A2807D1184600F0E1
:1023500077F9282802D02A2800D04746187828285C
:1023600001D00028E8D10FB13C44641C0027394655
:10237000207888B1282804D0292806D022280FD018
:1023800010E079B96D1CEDB20CE059B925B16D1EA4
:1023900015F0FF0501D00CE00127012E32D039E005
:1023A00049B100214DB12C280FD020281FD028285A
:1023B0001DD07AB117E00121F4E7202820D0039B3B
:1023C00018700398401C03901AE0521C4FF0010B48
:1023D000D2B20CE0BAF1050F05D20DF80A000AF1ED
:1023E000010000F0FF0A0BF1010000F0FF0B012DCE
:1023F00006D1BBF1020F03D1761C4FF0030BF6B2EE
:10240000641CB5E70DF80A9007A1684600F08BF947
:1024100000B9002604980670039880F8009006B072
:102420003846BDE8F08F0000766F69640000000058
:102430002DE9F04300248946314DB5B021462246AE
:102440006B18491CC9B29A760A29F9D303E000BF78
:1024500010F8011F91B101782829F9D1461C0127F4
:1024600033AA69463046FFF7C1FE06449DF8CC000A
:1024700040B1012824D0FF2839D10BE0012035B02C
:10248000BDE8F0839DF8000080B334A9684600F0F1
:10249000DFF808B10220F2E7204600F033F82844C4
:1024A00034994162288B07FA04F188432883042079
:1024B00029198876641CE4B20A2C18D90320DEE7B7
:1024C000684600F045F900F10108204600F01AF8CE
:1024D00041196846243100F032F9288B07FA04F1DB
:1024E00008432919288381F81A80E3E7FFE7307849
:1024F000292801D00028B3D189F800400020BEE788
:1025000040000020024610B500200146054B05E0C2
:102510005C18491CA47EC9B22044C0B29142F7D3D2
:1025200010BD000040000020094800680169C9434F
:10253000CA070849D1F8F02004D14FF6FF731A44B6
:10254000C1F8F020406A1044C1F8F0007047000064
:10255000380100204000002001490120C875704763
:10256000400000200246012000E05043491EC9B24D
:10257000FBD2704707486FF00101026811610268E1
:10258000090CD162C1600068002141620248C0F8B4
:10259000F010704738010020400000202DE9F04184
:1025A000164D2888010426D51549C0B2154F0026BE
:1025B0000E54B9681248884704000FD0104800F044
:1025C000D1F8012801D0040014D0012C09D0022C2C
:1025D00009D0032C09D0042C0CD108E0F8688047FE
:1025E00008E009A004E00BA002E00DA000E00FA0AD
:1025F000FFF7FCF92E80BDE8F081000012000020FA
:10260000F801002040000020BAAFCAFDB4EDCEF3BF
:10261000210D0A00B2CECAFDB4EDCEF3210D0A00A1
:10262000B2CECAFDCCABB6E0210D0A00CEB4D5D2F5
:10263000B5BDC6A5C5E4B5C4BAAFCAFD210D0A0033
:1026400010F8011F202901D10028F9D1C8B2704724
:102650002DE9F0430D4600244FF00A0926460146B5
:102660002C600A78A2F13003092B14D903782D2BA2
:1026700001D02B2B00D174B1A2F14103052B0AD953
:10268000582A05D012F0FF0F17D00120BDE8F083C3
:10269000012C02D0F9E7412A01D34FF0100902784A
:1026A0002D2A04D02B2A04D0641CE4B203E00226B5
:1026B00000E00126401C491CD3E70746B9F1100F82
:1026C00001D084B112E0032C01D20220DEE7387879
:1026D000302802D17878582801D00320D6E7A41EEC
:1026E000E4B2BF1C01E00420D0E70CB1641EE4B2E8
:1026F0003878A0F13001092901D8884601E0A0F11D
:10270000370821464846FFF72DFF2A6808FB0020BE
:10271000286017F8011F0029E7D1022E01D140429D
:1027200028600020B2E702780B789A4201D001209D
:10273000704712B1401C491CF5E700207047027831
:102740000A700278002A02D0401C491CF7E7704743
:10275000002102781AB1491CC9B2401CF9E70846A9
:1027600070470000F0B58DB004461E236A4602A9EA
:10277000FFF78FFD0190002872D19DF80000271807
:1027800000263E4C8DF800609DF8000054F82010A3
:1027900002A8FFF7C8FF38B19DF80000401CC0B286
:1027A0008DF800000728EFD39DF800000425344C75
:1027B000072855D2DFE800F00404395A605F5E0054
:1027C00030A0FFF713F930A0FFF710F93EA0FFF794
:1027D0000DF94DA0FFF70AF95BA0FFF707F96AA012
:1027E000FFF704F978A0FFF701F986A0FFF7FEF8DC
:1027F0008BA0FFF7FBF893A0FFF7F8F897A0FFF77F
:10280000F5F89CA0FFF7F2F8A1A0FFF7EFF8A7A05A
:10281000FFF7ECF8B3A0FFF7E9F8C0A0FFF7E6F880
:10282000CBA0FFF7E3F8D7A01BE016A0FFF7DEF878
:10283000E4A0FFF7DBF88DF800600BE0216805EB02
:10284000C0000958EFA0FFF7D1F89DF80000401C28
:102850008DF80000217D9DF800008142EED856E2FF
:1028600057E2FFF7C3F800200DB0F0BD05A0FFF759
:10287000BDF8CBE12CE20CE2EBE1000014000020FB
:10288000400000200D0A00002D2D2D2D2D2D2D2D69
:102890002D2D2D2D2D2D2D2D2D2D2D2D2D2D2D2D68
:1028A00055534D4152542056332E332D2D2D2D2D61
:1028B0002D2D2D2D2D2D2D2D2D2D2D2D2D2D2D2D48
:1028C0002D2D2D200D0A00002020202055534D4194
:1028D0005254CAC7D3C9414C49454E54454BBFAA6F
:1028E000B7A2B5C4D2BBB8F6C1E9C7C9B5C4B4AEC6
:1028F000BFDAB5F7CAD4BBA5BDBBD7E9BCFE2CCDAA
:10290000A8B9FD200D0A0000CBFC2CC4E3BFC9D23E
:10291000D4CDA8B9FDB4AEBFDAD6FACAD6B5F7D3CE
:10292000C3B3CCD0F2C0EFC3E6B5C4C8CEBACEBAFA
:10293000AFCAFD2CB2A2D6B4D0D02ED2F2B4CB2CDA
:10294000C4E3BFC90D0A0000D2D4CBE6D2E2B8FC82
:10295000B8C4BAAFCAFDB5C4CAE4C8EBB2CECAFDAA
:1029600028D6A7B3D6CAFDD7D62831302F3136BDE9
:10297000F8D6C62CD6A7B3D6B8BACAFD29A1A2D715
:10298000D6B7FBB4AE0D0A00A1A2BAAFCAFDC8EB20
:10299000BFDAB5D8D6B7B5C8D7F7CEAAB2CECAFD7A
:1029A000292CB5A5B8F6BAAFCAFDD7EEB6E0D6A7C2
:1029B000B3D63130B8F6CAE4C8EBB2CECAFD2CB2F9
:1029C000A2D6A7B3D60D0A00BAAFCAFDB7B5BBD819
:1029D000D6B5CFD4CABE2ED6A7B3D6B2CECAFDCFF7
:1029E000D4CABEBDF8D6C6C9E8D6C3B9A6C4DC2CC5
:1029F000D6A7B3D6BDF8D6C6D7AABBBBB9A6C4DC8A
:102A00002E0D0A00BCBCCAF5D6A7B3D63A777777A5
:102A10002E6F70656E6564762E636F6D0D0A000013
:102A200055534D415254D3D037B8F6CFB5CDB3C37B
:102A3000FCC1EE28B1D8D0EBD0A1D0B4293A0D0A10
:102A4000000000003F3A202020202020BBF1C8A138
:102A5000B0EFD6FAD0C5CFA20D0A000068656C7041
:102A60003A202020BBF1C8A1B0EFD6FAD0C5CFA242
:102A70000D0A00006C6973743A202020BFC9D3C3CB
:102A8000B5C4BAAFCAFDC1D0B1ED0D0A0A0000004D
:102A900069643A2020202020BFC9D3C3BAAFCAFD41
:102AA000B5C44944C1D0B1ED0D0A0A006865783A51
:102AB00020202020B2CECAFD3136BDF8D6C6CFD4F4
:102AC000CABE2CBAF3B8FABFD5B8F12BCAFDD7D617
:102AD000BCB4D6B4D0D0BDF8D6C6D7AABBBB0D0AFD
:102AE0000A0000006465633A20202020B2CECAFDAF
:102AF0003130BDF8D6C6CFD4CABE2CBAF3B8FABFAF
:102B0000D5B8F12BCAFDD7D6BCB4D6B4D0D0BDF859
:102B1000D6C6D7AABBBB0D0A0A00000072756E7438
:102B2000696D653A312CBFAAC6F4BAAFCAFDD4CBE1
:102B3000D0D0BCC6CAB13B302CB9D8B1D5BAAFCA17
:102B4000FDD4CBD0D0BCC6CAB13B0D0A0A000000F0
:102B5000C7EBB0B4D5D5B3CCD0F2B1E0D0B4B8F1B6
:102B6000CABDCAE4C8EBBAAFCAFDC3FBBCB0B2CEA3
:102B7000CAFDB2A2D2D4BBD8B3B5BCFCBDE1CAF881
:102B80002E0D0A002D2D2D2D2D2D2D2D2D2D2D2DE4
:102B90002D2D2D2D2D2D2D2D2D2D2D2D2D2D414C32
:102BA00049454E54454B2D2D2D2D2D2D2D2D2D2DA3
:102BB0002D2D2D2D2D2D2D2D2D2D2D2D2D2D2D2052
:102BC0000D0A00002D2D2D2D2D2D2D2D2D2D2D2DD2
:102BD0002D2D2D2D2D2D2D2D2D2D2D2D2DBAAFCA79
:102BE000FDC7E5B5A52D2D2D2D2D2D2D2D2D2D2DF3
:102BF0002D2D2D2D2D2D2D2D2D2D2D2D2D2D2D2D05
:102C0000200D0A0025730D0A0000000042A0FEF707
:102C1000EDFE8DF8006016E0216805EBC0000BABFF
:102C200008580AAA02A9FFF74BFB9DF8001020687C
:102C300050F8312002A948A0FEF7D8FE9DF8000008
:102C4000401C8DF80000217D9DF800008142E3D8F2
:102C50005DE0AFF2D030FEF7C9FE6A4602A9384601
:102C6000FFF7C4FA9DF80000002843D101A902A88B
:102C7000FFF7EEFC8DF8000010B104283AD102E015
:102C80003AA001991CE03CA0FEF7B0FE0120E075DF
:102C90003DE038A0FEF7AAFE6A4602A93846FFF7D3
:102CA000A5FA9DF8000028BB01A902A8FFF7D0FCF7
:102CB0008DF8000010B104281CD104E033A0019964
:102CC000FEF794FE23E034A0FEF790FEE6751EE0CA
:102CD00028A0FEF78BFE6A4602A93846FFF786FA5F
:102CE0009DF8000030B901A902A8FFF7B1FC8DF8EA
:102CF000000008B10220B7E5019810F0FF0084F849
:102D0000EC0001D029A000E02FA0FEF76FFE19A073
:102D1000A7E50120A8E500002D2D2D2D2D2D2D2D11
:102D20002D2D2D2D2D2D2D2D2D2D2D2D2D2D2D2DD3
:102D30002DBAAFCAFD204944202D2D2D2D2D2D2D2E
:102D40002D2D2D2D2D2D2D2D2D2D2D2D2D2D2D2DB3
:102D50002D2D2D2D200D0A00257320696420697307
:102D60003A0D0A3058253038580D0A004845583A6F
:102D7000305825580D0A00003136BDF8D6C6B2CEFF
:102D8000CAFDCFD4CABE210D0A0000004445433A13
:102D9000256C750D0A0000003130BDF8D6C6B2CEE4
:102DA000CAFDCFD4CABE210D0A00000052756E20A4
:102DB00054696D652043616C63756C6174696F6EF5
:102DC000204F4E0D0A00000052756E2054696D654B
:102DD0002043616C63756C6174696F6E204F464669
:102DE0000D0A0000016070470000000000000000B4
:102DF00001020304060708090000000001020304A1
:102E00003F000000646563006964000072756E74C1
:102E1000696D650068656C70000000006C69737412
:102E20000000000068657800766F69642077726939
:102E300074655F6164647228753332206164647202
:102E40002C7533322076616C2900000075333220F6
:102E5000726561645F6164647228753332206164F5
:102E600064722900842E0008000000203801000050
:102E7000A8020008C82E00083801002088050000BC
:102E80003C1A0008320182106324F4122E1B08142D
:102E9000041A1C041A08041A24041A04041A0C0440
:102EA00013F11E1B084C0813E52D1B0828082230BF
:102EB000142059251B08F51813891F1B089D0C2287
:082EC00002295701DD000000AA
:040000050800018965
:00000001FF
