:020000040800F2
:10000000700B00209D010008271B000861180008E4
:10001000251B00089D0600083D290008000000007F
:10002000000000000000000000000000E11F0008C8
:100030009F06000800000000B91F000819210008F1
:10004000B7010008B7010008B7010008B7010008B0
:10005000B7010008B7010008B7010008B7010008A0
:10006000B7010008B7010008B7010008B701000890
:10007000B7010008B7010008B7010008B701000880
:10008000B7010008B7010008B7010008B701000870
:10009000B7010008B7010008B7010008B701000860
:1000A000B7010008B7010008B7010008B701000850
:1000B000B7010008B7010008F5210008B7010008E2
:1000C000B7010008B7010008B7010008B701000830
:1000D000B70100081D29000831290008B7010008F0
:1000E000B7010008B7010008B7010008B701000810
:1000F000B701000809220008B7010008B70100088D
:10010000B7010008B7010008B7010008B7010008EF
:10011000B7010008B7010008B7010008B7010008DF
:10012000B7010008B7010008B7010008B7010008CF
:10013000B7010008B7010008B7010008B7010008BF
:10014000B7010008B7010008B7010008B7010008AF
:10015000B7010008B7010008B7010008B70100089F
:10016000B7010008B7010008B7010008B70100088F
:10017000B7010008B7010008B7010008000000003F
:10018000B7010008B7010008DFF80CD000F032FA20
:1001900000480047612E0008700B00200648804789
:1001A00006480047FEE7FEE7FEE7FEE7FEE7FEE75C
:1001B000FEE7FEE7FEE7FEE7A1210008890100084F
:1001C0002DE9F05F0546002092469B46884606468C
:1001D000814640241BE0284641464746224600F01F
:1001E0008AF953465A46C01A914110D3114618460F
:1001F000224600F071F92D1A67EB01084F4622469E
:100200000120002100F068F917EB00094E41201E83
:10021000A4F10104DFDC484631462A464346BDE8E6
:10022000F09FD2B201E000F8012B491EFBD27047CB
:100230000022F6E710B513460A4604461946FFF7B2
:10024000F0FF204610BD2DE9FE4F804681EA0300F5
:10025000C00F0C46009021F0004123F00045B8EBA0
:100260000200A94105D24046214690461C460B4655
:10027000024623F00040104347D0270DC7F30A0081
:10028000C3F30A510290401A019040286BDAC3F37D
:10029000130040F4801B0098924620B10023D2EB5B
:1002A000030A63EB0B0B01985946C0F1400250461C
:1002B00000F012F906460D4650465946019A00F0E4
:1002C0002AF910EB08006141002487EA115284EA00
:1002D000E7731A4340D0009A62B3019A012A4FEAA9
:1002E000075215DC001B61EB02014FF0004202EAED
:1002F0000752CDE90042001C41F5801132462B46E1
:1003000000F02AF903B0BDE8F08F40462146F9E736
:10031000001B61EB0201001C41F5801300185B41DA
:100320002018A2F5001747EB030140EAD570B61973
:100330006D4111E06D084FEA360645EAC0754FEA97
:100340000752001B61EB0201001C41F580114908B6
:100350004FEA30000019514132462B4603B0BDE848
:10036000F04F00F0EAB80098012240000023D0EBE3
:10037000020263EBE073009821464FEAE074B8EBA9
:10038000000061EB0401E9E783F000435BE781F0E3
:10039000004158E72DE9FE4F81EA030404F00044D0
:1003A00021F0004100944FF0000B23F0004350EA8D
:1003B00001045ED052EA03045BD0C3F30A54C1F3D4
:1003C0000A552C44A4F2F3340194A0FB0254C1F367
:1003D000130141F48011C3F3130343F4801301FBB1
:1003E000024400FB034E840A970A44EA815447EA18
:1003F0008357A4FB076802958D0A05FB07854FEA22
:10040000932C04FB0C542705029D4FEA065847EA3B
:100410001637B5EB08056EEB070C870E920E47EA10
:10042000811742EA8312A7FB0201B6EB0B0164EBD2
:1004300000042B0D43EA0C335E1844EB1C50DA46E3
:100440005146E7FB0201C5F313044FEA0B3343EABD
:1004500014534FEA0432019C43EA0603A4F10C044E
:100460000294009CCDE900B400F076F803B0BDE83A
:10047000F08F00200146F9E70EB5C10F80EAE07069
:100480000844CA07002140F233438DE80E000A46B3
:100490000B4600F061F803B000BD70B5C1F30A521D
:1004A00001F000450024C1F3130140F2FF3341F491
:1004B00080119A4201DA002070BD40F233439A4223
:1004C000A2F2334203DC524200F015F800E0904003
:1004D0002C43F1D0404270BD202A04DB203A00FAC0
:1004E00002F1002070479140C2F1200320FA03F38B
:1004F000194390407047202A04DB203A21FA02F089
:100500000021704721FA02F3D040C2F1200291404D
:10051000084319467047202A06DBCB17203A41FAD8
:1005200002F043EAE07306E041FA02F3D040C2F180
:100530002002914008431946704710B5141E73F10C
:10054000000408DA401C41F1000192185B411A4393
:1005500001D120F0010010BD2DE9F04D92469B46DF
:1005600011B1B1FA81F202E0B0FA80F22032904685
:10057000FFF7B2FF04460F4640EA0A0041EA0B01CA
:1005800053465A46084313D0114653EA010019D086
:10059000C8F140025046FFF7AEFF05460E465046F2
:1005A00059464246FFF798FF084305D0012004E072
:1005B00020463946BDE8F08D0020054346EAE07646
:1005C0002C4337430A986305E40AA0EB0800002295
:1005D000FD0A44EA47540A3002D500200146E9E703
:1005E000010510196941DDE9084500196941BDE8B7
:1005F000F04DA2E7064C074D06E0E06840F001032D
:1006000094E8070098471034AC42F6D3FFF7C0FDDA
:10061000A4490008C449000870B58C1810F8015BA3
:1006200015F0070301D110F8013B2A1106D110F88B
:10063000012B03E010F8016B01F8016B5B1EF9D18F
:100640002B0705D40023521E0DD401F8013BFAE715
:1006500010F8013BCB1A921C03E013F8015B01F880
:10066000015B521EF9D5A142D8D3002070BD000015
:1006700010B501220549064801F034F8054800F09C
:10068000EBFC05484068BDE810400047170000201B
:1006900028020020A801002070000020FEE770471B
:1006A0007047000070B5134C2078012821D1124DFD
:1006B00001222021284600F024F94FF47A6000F04E
:1006C00031F800222021284600F01BF90A2000F012
:1006D00029F80A4D01228021284600F012F90A204B
:1006E00000F020F800228021284600F00AF90020BE
:1006F000207070BD2800002000000240000402406D
:1007000090F83510022903D08021416501207047FF
:10071000052180F835100068016821F001010160B1
:100720000020704770B5044600F0F0F80546601CE4
:1007300002D004480078044400F0E8F8401BA042CE
:10074000FAD370BD040000202DE9F84FDFF87CB12A
:1007500000224FF001084FF0030A4FF00F090BF190
:10076000040E00BF0B6808FA02F42340A3426ED1C6
:100770004D68022D01D0122D0ED1D50800EB850C4D
:10078000DCF820505607F70E09FA07F6B5430E6954
:10079000BE402E43CCF82060066855000F790AFA57
:1007A00005FC07F0030726EA0C06AF403743076055
:1007B0004E68012E05D0022E03D0112E01D0122E2C
:1007C0000ED18668CF6826EA0C06AF4037438760B3
:1007D0004668A6430C79C4F3001494403443446043
:1007E000C6688C6826EA0C06AC403443C4604C688A
:1007F000E40065D5364C256845F4804525602468BD
:1008000022F0030504F480440094324C2E19D6F8EB
:10081000084895072F0F09FA07F5AC432E4DA8425B
:1008200001D1002524E02D4DA84201D101251FE072
:100830002B4DA84201D102251AE02A4DA84201D130
:10084000032515E0284DA84202D1042510E037E029
:10085000264DA84201D105250AE0254DA84201D127
:10086000062505E0234DA84201D1072500E0082513
:10087000BD402543C6F80858DBF800405D464E6889
:100880009C43F60300D51C432C60DEF800407546FF
:100890004E689C43B60300D51C432C600B4D0835B5
:1008A0002C684E689C43F60200D51C432C60074D13
:1008B0000C352C684E689C43B60200D51C432C6056
:1008C000521C102AFFF44EAFBDE8F88F003C0140E7
:1008D0004438024000300140000002400004024061
:1008E00000080240000C02400010024000140240C8
:1008F00000180240001C02400069084000D001209E
:1009000070470AB1816170470904FBE701488068BC
:1009100070470000040000200248816802781144FA
:1009200081607047040000200B4810B5016841F455
:1009300000710160016841F480610160016841F467
:1009400080710160032000F06FF8002000F006F8CD
:1009500000F024F8002010BD003C024070B50D4DA1
:1009600004464FF47A712878B1FBF0F00A4909681F
:10097000B1FBF0F000F0E0FA48B9102C07D20022E9
:100980002146501E00F030F800206C6070BD012040
:1009900070BD000004000020100000200A4808B5C7
:1009A000016841F480410160006800F480400090DB
:1009B0000548001F016841F080510160006800F0A7
:1009C0008050009008BD000044380240002809DB38
:1009D00000F01F02012191404009800000F1E02059
:1009E000C0F8001170470000F0B40E4B1B680C46B5
:1009F000C3F30223C3F10705042D00D90425191DF3
:100A0000072901D2002300E0DB1E012606FA05F1CA
:100A1000491E214099409E40761E16403143F0BC4D
:100A200001F0C0BF0CED00E0064900F007020868C5
:100A30004FF6FF03184040EA0220034A10430860C3
:100A4000704700000CED00E00000FA052DE9F047CA
:100A50000E46050065D0DFF81481D8F80000F7B223
:100A600000F00F00B04207D288F80070D8F80000FC
:100A700000F00F00B04254D128683D4C810712D5D8
:100A8000400703D5206840F4E05020602878000734
:100A900003D5206840F4604020602068A96820F0F9
:100AA000F000084320602878C0072DD030496868DE
:100AB0000839012812D0022813D0032811D0096860
:100AC000890700292DDA216821F003010143216003
:100AD000FFF71CFF814641F2883A0EE0096889035E
:100AE000EFE709688901ECE7FFF710FFA0EB0901C8
:100AF000514502D90320BDE8F0872068696800F0FD
:100B00000C00B0EB810FEFD1D8F80010404601F097
:100B10000F01B14207D90770006800F00F00B04222
:100B200001D00120E7E72878400705D52068E9686B
:100B300020F4E050084320602878000706D520689C
:100B4000296920F4604040EAC100206000F036F8D6
:100B50002168084AC1F30311515CC8400649086086
:100B60000020FFF7FBFE0020C5E70000003C02402C
:100B700008380240AC3E0008100000200448054937
:100B800000680968044AC1F38221515CC84070477B
:100B90001000002008380240BC3E00080448054907
:100BA00000680968044AC1F34231515CC84070478B
:100BB0001000002008380240BC3E0008154810B55F
:100BC000006810F00C02144813D04110042A0FD012
:100BD000082A0ED10F4C241F2268236802F03F021E
:100BE0005B0207D52068C0F38810A0FB010106E076
:100BF000084610BD2168C1F38811A1FB0001002344
:100C0000FFF7DEFA2168C1F30141491C4900B0FB3E
:100C1000F1F010BD083802400024F4002DE9F84F2F
:100C2000050076D02878DFF8F8B2BE4CC00749D06E
:100C3000DBF800105846C1F38101012908D0006893
:100C4000C0F3810002280AD1201D0068400206D5A9
:100C50002068800336D568680028E2D032E06868F2
:100C6000B0F5803F10D0B0F5A02F206810D020F450
:100C700080302060206820F4802020606868A0B167
:100C8000FFF744FE06460CE0206840F48030F4E7AD
:100C900040F480202060F7E7FFF738FE801B6428CF
:100CA00073D820688003F7D50CE0FFF72FFE0646C7
:100CB00005E000BFFFF72AFE801B6428F0D82068FB
:100CC0008003F7D42878DFF8608280074FF00009AE
:100CD0003ED5DBF80010584611F00C0F09D0006823
:100CE000C0F3810002280BD18D48001F006840022C
:100CF00006D42068800715D5E868012809D111E0DD
:100D0000E868B8B10120C8F80000FFF7FFFD06460B
:100D100005E002E1FFF7FAFD801B0228C0D8206839
:100D20008007F7D52068296920F0F80040EAC10063
:100D300020600DE0C8F80090FFF7E8FD064604E0EB
:100D4000FFF7E4FD801B02281FD820688007F7D436
:100D50002878000722D5724E744869696C3671B1E3
:100D600001210160FFF7D2FD074604E0FFF7CEFD49
:100D7000C01B022809D830688007F7D50EE0C0F8FC
:100D80000090FFF7C3FD074605E083E0FFF7BEFDD7
:100D9000C01B02287ED830688007F7D42878400727
:100DA00068D5DFF87CA100270AF1380ADAF80000DC
:100DB000C0000BD4DAF8001041F08051CAF80010DE
:100DC000DAF80000012700F080500090584E30689B
:100DD000C00510D4306840F480703060FFF796FD95
:100DE000009005E0FFF792FD0099401A022851D8C3
:100DF0003068C005F6D54A4EA868683601280FD07D
:100E00000528306810D020F001003060306820F0F4
:100E100004003060A868B8B1FFF778FD00900FE0DB
:100E2000306840F00100F4E740F004003060F7E77C
:100E3000FFF76CFD0099411A41F28830814264D875
:100E400030688007F4D50EE0FFF760FD009007E002
:100E5000FFF75CFD0099411A41F28830814254D875
:100E600030688007F4D42FB1DAF8001021F08051F7
:100E7000CAF80010A869C0B3DBF80010C1F3810103
:100E800002294AD00228484607D0C8F86000FFF778
:100E90003DFD00E039E005463AE04746C8F860000D
:100EA000FFF734FD064604E0FFF730FD801B022803
:100EB0002BD820688001F7D4D5E907010843A96A37
:100EC0001C4A490802EB01416A6A41EA821108435F
:100ED00095F82C1040EA01611148001F01600120C3
:100EE0003866FFF713FD054605E014E0FFF70EFD39
:100EF000401B022809D820688001F7D50BE000BF0D
:100F0000FFF704FD401B022802D90320BDE8F88F3B
:100F100020688001F4D40020F8E70120F6E7000003
:100F2000083802400038024000004742800E474225
:100F3000007000400000FFFF10B5401EB0F1807F40
:100F400001D3012010BD4FF0E02460610F21601734
:100F500001F028FD0020A06107202061002010BDC5
:100F60007047704770B590F83C20012A19D00124D1
:100F700000F83C4F0222427050F83C3C5A689D6891
:100F800022F070060A684968324325F0800529433B
:100F90005A6050F83C2C9160447000210170084662
:100FA00070BD022070BD10B5040003D094F83D0060
:100FB00010B107E0012010BD002084F83C0020465D
:100FC00000F00CF8022084F83D00211D206801F09B
:100FD00021F9012084F83D00002010BD08B51A4A0F
:100FE00001681A48914208D1016841F0020101608C
:100FF000006800F00200009008BD154A91420ED131
:10100000016841F0040101600068002200F0040062
:10101000009011461E20FFF7E7FC1E2010E00D4A4D
:101020009142E9D1016841F48071016000680022B9
:1010300000F48070009011462D20FFF7D5FC2D2084
:10104000BDE80840FFF7C2BC000400404038024041
:1010500000080040002000400168CA6842F0010218
:10106000CA600068816801F00701062903D00168A1
:1010700041F0010101600020704770B5044690F80E
:101080003C00012817D0012584F83C50022084F848
:101090003D002068826822F0770222F47F4282605D
:1010A0000868502830D00DDC20284DD005DC98B3DE
:1010B00010283BD148E0022070BD302844D04028A1
:1010C00034D139E0602828D0702806D0B0F5805F90
:1010D0002CD0B0F5005F29D10AE0CB68D1E901211D
:1010E000206801F008F92068816841F0770109E083
:1010F000CB68D1E90121206801F0FDF82068816802
:1011000041F48041816011E0CA684968206801F0BB
:10111000C7F95021206807E016E0CA6849682068CE
:1011200001F0CFF96021206801F0EFF884F83D501C
:10113000002084F83C0070BDCA684968206801F04E
:10114000AFF940212068EFE7226801461046EBE73F
:10115000704770B50446006801694FF00005C94347
:10116000890715D4C168C943890711D4E91E0161F3
:1011700001202077206880698007204602D0FFF791
:10118000E7FF04E000F0C0F8204600F042F92577C0
:1011900020680169C943490717D4C168C943490791
:1011A00013D46FF004010161022020772068806968
:1011B00010F4407F204602D0FFF7CAFF04E000F0A1
:1011C000A3F8204600F025F9257720680169C94376
:1011D000090716D4C168C943090712D46FF0080182
:1011E0000161042020772068C0698007204602D072
:1011F000FFF7AEFF04E000F087F8204600F009F9A1
:10120000257720680169C943C90617D4C168C94355
:10121000C90613D46FF010010161082020772068FF
:10122000C06910F4407F204602D0FFF791FF04E030
:1012300000F06AF8204600F0ECF825772068016994
:10124000C943C90708D1C168C943C90704D1891E68
:101250000161204600F000F920680169C9430906D0
:1012600009D4C168C943090605D46FF08001016142
:101270002046FFF775FE20680169C943490609D475
:10128000C168C943490605D46FF040010161204699
:1012900000F008F920680169C94389060BD4C168C8
:1012A000C943890607D46FF0200101612046BDE8DB
:1012B0007040FFF756BE70BD10B586B004461421CD
:1012C0006846FEF7B5FF0D492068884214D10C48E6
:1012D0000021026842F002020260006800F0020091
:1012E0000590032000900220CDE90101CDE9031013
:1012F00069460448FFF728FA06B010BD0004004014
:101300003038024000040240704770B5044690F83F
:101310003C000D4601280DD0012684F83C600220D7
:1013200084F83D0042B1042A18D0082A2AD00C2A99
:101330004DD139E0022070BD206800F0EFFF206839
:10134000816941F0080181612068816921F004010F
:101350008161206881692A69114311E0206801F0E8
:101360000DF82068816941F400618161206881691C
:1013700021F480618161206881692A6941EA022142
:10138000816124E0206801F02FF82068C16941F0F4
:101390000801C1612068C16921F00401C1612068B0
:1013A000C1692A69114311E0206801F051F82068F1
:1013B000C16941F40061C1612068C16921F48061A3
:1013C000C1612068C1692A6941EA0221C16184F8CA
:1013D0003D60002084F83C0070BD10B5040003D0CF
:1013E00094F83D0010B107E0012010BD002084F802
:1013F0003C00204600F00CF8022084F83D00211D3E
:10140000206800F007FF012084F83D00002010BD97
:101410007047704710B504460068012200F05EFF77
:101420000B492068884202D00A49884203D1416CA6
:1014300041F4004141642068816801F007010629F8
:1014400003D0016841F001010160002010BD0000DF
:10145000000001400004014010B500680D498842B9
:1014600017D10D484FF000044FF001020188491CCC
:101470000B041B0C0380418801F1010189B24180FA
:1014800002D0064B04801A700A2902D34480044813
:10149000027010BD00200040000000203A00002033
:1014A0003B0000207047704710F8391F4078084310
:1014B0007047000070B5026804461068D16853692F
:1014C00010F00F0F50D003F0010501F49076354372
:1014D0005DD0C20705D0CA0503D5E26B42F0010218
:1014E000E263420705D5DA0703D0E26B42F002025D
:1014F000E263820705D5DA0703D0E26B42F004020B
:10150000E263020705D5DA0703D0E26B42F0080276
:10151000E263E26B002A33D0800604D5880602D548
:10152000204600F0F6FF20684069E16BC0F38010B0
:10153000090700D428B3204600F0DDFF2068416988
:1015400049061AD5416921F040014161606BA0B1A3
:101550001B490165606BFFF7D3F8002810D0606B62
:10156000016DBDE870400847830610D58B060ED587
:101570002046BDE8704000F0CCBF2046FFF793FF47
:1015800070BD2046FFF78FFF0020E06370BD0306AB
:1015900006D50B0604D52046BDE8704001F05AB9C7
:1015A0004006F3D54806F1D5D168204621F0400128
:1015B000D160202184F8391000F051F970BD00008D
:1015C000E724000870B5040004D094F83900002521
:1015D00010B106E0012070BD84F83850204600F0BC
:1015E00023F8242084F839002068C16821F40051D0
:1015F000C160204600F0D8FF2068016921F49041C5
:1016000001612068416921F02A0141612068C168B7
:1016100041F40051C160E563202084F8390084F86A
:101620003A00002070BD0000F0B587B004461421D8
:101630006846FEF7FDFD274F226827490223012453
:10164000032507262548BA421ED1234A14321768BB
:1016500047F010071760126802F0100205920A683E
:1016600042F001020A60096801F001010591690276
:101670008DE87A006946FFF767F8002211462520B9
:10168000FFF7B2F9252020E0154FBA421FD1124AC8
:101690001032176847F400371760126802F40032FE
:1016A00005920A6842F001020A60096801F001012E
:1016B00005910C218DE87A006946FFF745F8002274
:1016C00011462620FFF790F92620FFF77FF907B093
:1016D000F0BD000000100140303802400000024020
:1016E0000044004090F83A30202B22D1F9B1F2B1F9
:1016F00090F83830012B1CD081628285C285002190
:10170000C163222280F83A2080F838100168CA6844
:1017100042F48072CA6001684A6942F001024A617B
:101720000068C16841F02001C160002070470120BD
:101730007047022070470000F0B4164A01689142D9
:101740001BD11549CA88130417D401F103035504AA
:101750001B784FF0000404D50A2B0DD142F400424F
:1017600014E00D2B10D0C2F30D050C4E521C92B29A
:101770007355CA80C72A00D9CC80006808498842BE
:1017800006D1F0BC00F066BB42F48042CA80F4E7A8
:10179000F0BC70470010014014000020A802002097
:1017A000004400402DE9F843044690F839001F46F4
:1017B00016460D46202850D1A5B19EB194F83800A8
:1017C00001284AD0012084F838004FF00008C4F8FE
:1017D0003C80212084F83900FFF798F8A6848146E0
:1017E000E68426E00120BDE8F883E08C401EE0841A
:1017F000A0684B46B0F5805F4FF000024FF08001CB
:101800002046009703D001F056F8E8B90DE001F04A
:1018100052F8C8B928882168C0F3080048602069D8
:1018200008B16D1C05E0AD1C03E0216815F8010B43
:101830004860E08C0028D8D14B4600224021204649
:10184000009701F038F808B10320CCE7202084F895
:10185000390084F838800020C5E70220C3E77047CC
:10186000FEE70000064B4FF40071012805D0002868
:1018700005D101221846FFF744B80022FAE7704765
:10188000001402402DE9F04387B014216846FEF7AA
:10189000CFFC33480025016841F020010160016858
:1018A00001F020010591016841F0800101600168AB
:1018B00001F080010591016841F0010101600168BA
:1018C00001F001010591016841F002010160006829
:1018D000012200F00200234F5402059021463846B1
:1018E000FFF70FF8DFF88080002220214046FFF745
:1018F00008F8DFF8789000224FF280014846FFF7A1
:1019000000F800940124694638460194CDE9024567
:10191000FEF71AFF2020022603958DE85100694644
:101920004046FEF711FF4FF47840CDE900056946C7
:1019300002943846FEF708FF4FF470408DE87100BE
:1019400069464846FEF700FF802003958DE8510068
:1019500069464846FEF7F8FE07B0BDE8F083000090
:1019600030380240001402400000024000040240EF
:101970000B4810B50949016053214160002140F234
:10198000E732C0E9021201618161FFF70CFB002818
:1019900003D0BDE81040FEF783BE10BD002000401C
:1019A000E801002010B58EB0002407940894099433
:1019B0000A940B941C2168460C94FEF739FC2248CB
:1019C000204901605321C0E9011444F61F61C0E9B8
:1019D00003148461FFF7E7FA08B1FEF761FE4FF4E4
:1019E0008050079007A91848FFF747FB08B1FEF79A
:1019F00057FE1548FFF7F1FC08B1FEF751FE0B94B6
:101A00000BA911480C94FFF7ADFA08B1FEF748FE98
:101A10006020CDE900040294082269460A48049433
:101A2000FFF773FC08B1FEF73BFE0C22694606483F
:101A3000FFF76BFC08B1FEF733FE0348FFF73CFCF1
:101A40000EB010BD000400406801002010B586B043
:101A500000241748009401940294039404941349B9
:101A60000594016042F2D001C0E901144FF47A718B
:101A7000C0E903148461FFF796FA08B1FEF710FE7F
:101A80004FF48050009069460948FFF7F6FA08B114
:101A9000FEF706FE049404A905480594FFF762FAD0
:101AA000002801D0FEF7FCFD06B010BD0008004084
:101AB000A80100200C4810B50A4901604FF4E1313B
:101AC0004160002181600C22C160C0E90412816183
:101AD000C161FFF777FD002803D0BDE81040FEF795
:101AE000DFBD10BD00100140280200200C4810B5D9
:101AF0000A4901604FF416514160002181600C22B7
:101B0000C160C0E904128161C161FFF75BFD00287B
:101B100003D0BDE81040FEF7C3BD10BD0044004037
:101B200068020020FEE7704710B40021084B0A4607
:101B30005FF0000003EBC004401CC0B26254802878
:101B4000F8D3491CC9B20829F2D310BC00F096B8EA
:101B50007003002010B57F2816D83F2914D807231A
:101B6000A3EBD10301F00701C1F107040121A1405A
:101B7000064CDBB204EBC000002AC25CC9B201D043
:101B80000A4300E08A43C25410BD000070030020E5
:101B900010B5394C0020C4F8B402642004F52D744B
:101BA000FEF7C0FD012020600021AE2000F030F9DA
:101BB0000021D52000F02CF90021502000F028F958
:101BC0000021A82000F024F900213F2000F020F996
:101BD0000021D32000F01CF90021084600F018F97C
:101BE0000021402000F014F900218D2000F010F9B0
:101BF0000021142000F00CF90021202000F008F949
:101C00000021022000F004F90021A12000F000F9D9
:101C10000021C02000F0FCF80021DA2000F0F8F8E4
:101C20000021122000F0F4F80021812000F0F0F8EB
:101C30000021EF2000F0ECF80021D92000F0E8F8B6
:101C40000021F12000F0E4F80021DB2000F0E0F8B2
:101C50000021302000F0DCF80021A42000F0D8F8AA
:101C60000021A62000F0D4F80021AF2000F0D0F829
:101C7000BDE81040FFF758BF0080404270B5114EDC
:101C8000002400BF04F1B000C0B2002100F0C0F891
:101C90000021084600F0BCF80021102000F0B8F840
:101CA0005FF0000506EBC5000121005D00F0B0F813
:101CB0006D1CEDB2802DF5D3641CE4B2082CE1D389
:101CC00070BD0000700300202DE9FF4F203A1F4631
:101CD0000C46894602F0FF0A0025DDF834B032E0F8
:101CE0000C2F09D01A4901EB0A104FF00008465D8D
:101CF000300607D55A4609E016490AEB4A0001EBBF
:101D00008000F2E7BBF1000F12D0002221460098BC
:101D1000FFF720FF7006641C060EE4B2A4EB090076
:101D2000B84207D100984C46401CC0B2009008E071
:101D30000122EBE708F1010000F0FF08B8F1080FFD
:101D4000D6D36D1CEDB2BD42CAD3BDE8FF8F0000F3
:101D500038430008C43E00082DE9FF4F81B000263B
:101D6000DDF838A01D469346814634464FF0010801
:101D70004FEA5A0727E0281B401EC1B20A2001F093
:101D8000AFF8BBFBF0F00A21B0FBF1F201FB12004F
:101D900026B9691E8C4201DA48B101263030C2B240
:101DA00007FB0490C0B25346CDF8008006E007FB65
:101DB0000490C0B253462022CDF800800299FFF76C
:101DC00083FF641CE4B2AC42D5D305B0BDE8F08F0C
:101DD000F8B516460D460446012714E07A2C02D9C0
:101DE00000241035EDB23A2D03D900242546FFF723
:101DF0009BFE009732780C2329462046FFF764FFAC
:101E00000834E4B2761C30780028E7D1F8BD000031
:101E100030B500230E4A012411B1C2F8B04201E0EE
:101E2000C2F8B0325FF00001C2F8BC32050602D53C
:101E3000C2F8B84201E0C2F8B832C2F8BC4240066B
:101E4000491C000EC9B20829EED3C2F8B04230BD19
:101E5000008040421448011D82780978012A10D17F
:101E6000037800F10802D1545B1CDBB20370022B33
:101E700007D11378C3605278026100220270427069
:101E800082700122FF2903D04378012B02D004E0A5
:101E9000427002E0FE2900D1827003490122091D2F
:101EA0000248FFF71FBC0000140000206802002059
:101EB00010B51A4CB4F910002D2801D010B103E070
:101EC000012100E0002121812189012923D0401C2A
:101ED000208200B2FEF7D0FA9FED111B53EC112BBC
:101EE000FEF758FA9FED101B53EC112BFEF7ABF9E0
:101EF000FEF7D3FA00B260814FF475724FF4F071BF
:101F000000F038FD0A49A0810968C863BDE81040A7
:101F10003220FEF707BC401EDAE700002800002050
:101F200033333333333326400000000000007E405B
:101F30006801002010B51A4CB4F90E001D2801D11B
:101F40000121618010F11D0F01D1002161806188A4
:101F5000012923D0401CE08100B2FEF78DFA9FEDED
:101F6000111B53EC112BFEF715FA9FED101B53ECD0
:101F7000112BFEF768F9FEF790FA00B2A08040F24C
:101F8000447240F2C24100F0F5FC0A49E080096861
:101F90000864BDE810401E20FEF7C4BB401EDAE70F
:101FA0002800002033333333333326400000000051
:101FB00000109840680100207047000010B50648E6
:101FC000FFF772FA2028FAD1012204490248FFF7EC
:101FD00089FB0028F8D110BD28020020170000203E
:101FE0007047000003480178002901D101210170E8
:101FF000704700002800002010B51F4C4FF400610E
:102000002046FEF779FCB8B1A1142046FEF774FC17
:1020100000B34FF400512046FEF76EFCF8B14FF4C8
:1020200080412046FEF768FCE0B14FF400412046B5
:10203000FEF762FCC8B11AE010484FF4F071026874
:10204000D163006840F2046101640D480021C18140
:1020500001820CE000211E2000F014F807E0FEF7DA
:1020600021FB04E0FFF766FF01E0FFF721FFBDE879
:102070001040FFF7B7BF00000014024068010020C5
:102080002800002070B50C462DED028BFEF7F4F908
:102090009FED1A8B53EC182BFEF77CF99FED191B63
:1020A00053EC112BFEF7CFF8FEF7F7F905B22046F7
:1020B000FEF7E2F953EC182BFEF76CF99FED131BBA
:1020C00053EC112BFEF7BFF8FEF7E7F904B24FF41B
:1020D00075724FF4F071284600F04CFC054640F252
:1020E000447240F2C241204600F044FC094A1168A3
:1020F000CD6311680864BDEC028B70BD333333339C
:10210000333326400000000000007E400000000045
:102110000010984068010020FEF7FEBB30B593B078
:1021200030216846FEF784F814210CA8FEF780F8E9
:1021300019480025016841F080510160006800F0F5
:10214000805011901548016841F480410160006899
:10215000022400F4804011900120009000040190BE
:102160008001CDE9064008AA0420A82182E81300D6
:102170000B906846FEF752FD0CA90F2081E8310054
:102180004FF4A0500F90E002109005210CA8FEF72C
:102190005DFC13B030BD00004038024000700040CC
:1021A0001048016841F4700101600F48016841F076
:1021B000010101600C4A00210832116002680B4BDA
:1021C0001A400260031D0A4A1A60026822F4802243
:1021D000026005480C3001600249580680390860E9
:1021E0007047000088ED00E000380240FFFFF6FE77
:1021F0001030002410B500F0A3FBBDE810400148EA
:10220000FEF7A7BFA80100200148FEF7A2BF00000B
:10221000E8010020F0B50268254C264D264E274FD8
:10222000274B4FF0804CA04209D0604507D0A84210
:1022300005D0B04203D0B84201D0984204D122F078
:10224000700E4A6842EA0E02A0421BD0604519D0C7
:10225000A84217D0B04215D0B84213D0984211D03E
:10226000184DA8420ED0184DA8420BD0174DA842C9
:1022700008D0174DA84205D0164DA84202D0164DE1
:10228000A84203D122F44075CA682A434D6922F05E
:1022900080022A4302608A68C2620A688262A0429F
:1022A00001D0984201D10969016301214161F0BD6A
:1022B000000001400004004000080040000C004005
:1022C000000401400040014000440140004801403A
:1022D00000180040001C00400020004010B501F034
:1022E0001F030121046A99408C430462016A9A40E9
:1022F0001143016210BD10B5846842EA032224F440
:102300007F440A432243826010BD826822F070023B
:102310000A4342F00701816070470000F0B5026A8D
:1023200022F001020262036A42688469124E24F0BC
:1023300073050C682C4323F002058B682B430D4D6D
:10234000A84201D0B04205D123F00807CB683B4337
:1023500023F00403A84201D0B04205D14D6922F414
:10236000407215438A692A43426084614968416327
:102370000362F0BD0000014000040140F0B5026AB4
:1023800022F010020262026A436884690D6824F434
:10239000E64444EA05248D6822F0200242EA051250
:1023A0000F4D104EA84201D0B04206D1CF6822F0A6
:1023B000800242EA071222F04002A84201D0B04255
:1023C00007D14D6923F4406343EA85038D6943EAED
:1023D000850343608461496881630262F0BD000047
:1023E0000000014000040140F0B5026A22F480724E
:1023F0000262026A4368C46922F4007224F0730521
:102400000C68124E2C438D6842EA05220E4DA842FC
:1024100001D0B04206D1CF6822F4006242EA07221E
:1024200022F48062A84201D0B04207D14D6923F462
:10243000405343EA05138D6943EA05134360C461C1
:102440004968C1630262F0BD000001400004014020
:1024500030B5026A22F480520262046A4268C3699B
:102460000D6823F4E64343EA05238D6824F4005401
:1024700044EA0534084DA84202D0084DA84204D1D0
:102480004D6922F4804242EA85124260C361496884
:102490000164046230BD00000000014000040140FE
:1024A00010B5036A046A24F001040462846924F00C
:1024B000F00444EA021423F00A020A43846102622F
:1024C00010BD10B5036A23F0100303628369046A28
:1024D00023F4704343EA023224F0A00343EA0111DB
:1024E0008261016210BD10B5806B0021C185C1847D
:1024F000FEF7D9FF10BD0168CA6822F49072CA6065
:1025000001684A6922F001024A61202180F83A10EC
:10251000704710B590F83A10222901D0022010BD62
:102520008168B1F5805F11D00169002901681FD071
:10253000496801F07F03816A4A1C82620B70C18D79
:10254000491E0904090CC18518D02BE00269816A73
:10255000002A0268526805D0D2B20A80816A491CFA
:102560008162ECE7C2F308020A80816A891CF7E7FE
:102570004A68816A4B1C83620A70E0E70168CA6896
:1025800022F02002CA600168CA6822F48072CA6020
:1025900001684A6922F001024A61202180F83A105C
:1025A000FFF7CAF8002010BD2DE9F041044600688D
:1025B0000169E26821F44051114301612169A06879
:1025C000E26908436169114322680843D16849F20E
:1025D0000C6399430143D16020684169A26921F4E9
:1025E000407111434161E2696425B2F5004F97489B
:1025F000974922684FF032083FD08A4201D0824288
:102600007CD1FEF7CBFA00EBC00101EB0010616852
:102610008900B0FBF1F6FEF7C1FA00EBC00101EB57
:10262000001061688900B0FBF1F0B0FBF5F06FF0CD
:102630001801484306EB800108EB0110B0FBF5F0F0
:1026400000F0F006FEF7AAFA00EBC00101EB001063
:1026500061688900B0FBF1F0B0FBF5F006EB001605
:10266000FEF79CFA00EBC00101EB001061688900E5
:10267000B0FBF1F7FEF792FAD2E08A4201D0824233
:102680003DD1FEF78BFA00EBC00101EB0010616851
:102690004900B0FBF1F0B0FBF5F00601FEF77EFA61
:1026A00000EBC00101EB001061684900B0FBF1F7DD
:1026B000FEF774FA00EBC00101EB001061684900FD
:1026C000B0FBF1F0B0FBF5F06FF01801484307EBF9
:1026D000800108EBC100B0FBF5F000F0F80006EB5C
:1026E0004006FEF75BFA00EBC00101EB00106168E9
:1026F0004900B0FBF1F7FEF751FA3CE055E0FEF778
:102700003DFA00EBC00101EB001061684900B0FB2D
:10271000F1F0B0FBF5F00601FEF730FA00EBC00176
:1027200001EB001061684900B0FBF1F7FEF726FAF3
:1027300000EBC00101EB001061684900B0FBF1F053
:10274000B0FBF5F06FF01801484307EB800108EB90
:10275000C100B0FBF5F000F0F80006EB4006FEF714
:102760000DFA00EBC00101EB001061684900B0FBFD
:10277000F1F7FEF703FA00EBC00101EB001061680E
:102780004900B0FBF1F0B0FBF5F06FF018014843E1
:1027900007EB800108EBC100B0FBF5F000F007008B
:1027A000216830448860BDE8F081FEF7E7F900EB6E
:1027B000C00101EB001061688900B0FBF1F6FEF783
:1027C000DDF900EBC00101EB001061688900B0FB8E
:1027D000F1F0B0FBF5F06FF01801484306EB800113
:1027E00008EB0110B0FBF5F000F0F006FEF7C6F9BB
:1027F00000EBC00101EB001061688900B0FBF1F053
:10280000B0FBF5F006EB0016FEF7B8F900EBC001DF
:1028100001EB001061688900B0FBF1F7FEF7AEF93B
:1028200000EBC00101EB001061688900B0FBF1F022
:10283000B0FBF5F06FF01801484307EB800108EB9F
:102840000110B0FBF5F000F00F00A9E70014014003
:102850000010014090F83910212901D00220704762
:102860008168B1F5805F016A0BD04A1C0262026880
:1028700009785160C18C491E0904090CC1840ED02D
:1028800017E009880268C1F3080151600169002955
:10289000016A02D0491C0162ECE7891CFBE7016870
:1028A000CA6822F08002CA600068C16841F0400135
:1028B000C160002070472DE9F041984617460E464A
:1028C0000446069D1DE0681C1BD02DB1FEF71EF8C6
:1028D000A0EB0800A84214D92068C16821F4D07187
:1028E000C1602068416921F001014161202084F824
:1028F000390084F83A00002084F838000320BDE84D
:10290000F0812068006836EA000004D00020B84258
:10291000D9D00020F3E70120F9E7000010B5034803
:10292000FEF7C8FDBDE81040FFF748BB28020020B5
:102930000148FEF7BFBD000068020020FEE700006E
:1029400010B50A4C2068C068C043C00709D10848C8
:102950000069804721680020486221686420C862BD
:10296000E06021686FF00100086110BDA80100203F
:10297000700000200346884200DA0846934200DDDA
:10298000104670470FB4054B10B503A9044A0298CE
:1029900000F028F810BC5DF814FB0000492E000878
:1029A000640100200907090E002804DB00F1E02083
:1029B00080F80014704700F00F0000F1E02080F86C
:1029C000141D704702E008C8121F08C1002AFAD17E
:1029D00070477047002001E001C1121F002AFBD19F
:1029E000704700002DE9FF4F8DB00F4605460026C9
:1029F00006E025280BD0DDE90F1290476D1C761CF0
:102A000028780028F5D111B03046BDE8F08F0024B9
:102A1000A246A1460122EC4900E0044315F8013F1B
:102A2000203B02FA03F00842F7D128782A2810D078
:102A30006FF02F022878A0F13001092914D80AEB91
:102A40008A0102EB410144F0020400EB010A6D1C13
:102A5000F0E701CF5FEA000A03D544F40054CAF15D
:102A6000000A44F002046D1C28782E2817D115F8AE
:102A7000010F44F004042A280ED06FF02F022878AA
:102A8000A0F1300109290AD809EB890102EB4101C3
:102A900000EB01096D1CF2E757F8049B6D1C2878C8
:102AA0006C280FD006DC4C2817D068280DD06A2877
:102AB00014D104E0742810D07A280FD10DE044F42A
:102AC00000140AE044F4801401E044F440146978EE
:102AD000814202D104F580146D1C6D1C2A786E2A87
:102AE0001FD00CDC632A31D004DC002A8BD0582A9A
:102AF00011D1A3E0642A68D0692A0CD165E0732A59
:102B00002ED004DC6F2A73D0702A04D19BE0752A82
:102B10006FD0782A6ED01046DDE90F129047761CF0
:102B200050E1C4F30250022806D0032809D004283B
:102B300001CF09D0066045E101CFF117C0E900617E
:102B400040E101CF06803DE106703BE117F8040B40
:102B50008DF8000000208DF80100EB46012003E015
:102B600057F804BB4FF0FF3061074FF0000102D46B
:102B70000DE008F10101884649450FDA8045F8DB90
:102B80001BF808100029F4D108E008F1010188467B
:102B90008142FADB1BF808100029F6D1DDE90F238A
:102BA000AAEB08008146214600F036F9304400EBDC
:102BB000080604E0DDE90F121BF8010B9047B8F19D
:102BC0000108F7D221464846F7E00A21C4F3025330
:102BD0004FF0000B0891022B04D001CFC117032B3B
:102BE00009D00AE0FF1D27F00707F7E8020108E017
:102BF00032E01FE020E000B2C117042B01D140B247
:102C0000C117031E71F1000307DA4FF0000CD0EB7F
:102C10000C006CEB01012D2302E0230504D52B23CE
:102C20008DF82430012303E0E30701D02023F7E7E8
:102C3000984658E00A2110E010210EE010204FF0D5
:102C4000000B08900CE010214FF0000B44F004043E
:102C50004FF00809089103E008214FF0000B08919C
:102C6000C4F30253022B04D001CF0021032B06D062
:102C700006E0FF1D27F00707F7E8020103E080B236
:102C8000042B00D1C0B24FF0000823072BD5702AC7
:102C900007D0DDF820C08CF0100C5CEA0B0C05D0DE
:102CA0000EE040238DF82430012308E050EA0103B0
:102CB00006D030238DF824308DF825200223984645
:102CC000DDF820C08CF0080C5CEA0B0C0BD150EA4C
:102CD000010301D1630706D530238DF824304FF06E
:102CE0000108A9F10109582A04D038A20B9208AAB8
:102CF0000A920BE03AA2F9E75B46089AFDF760FA00
:102D00000B9B9B5C0A9A521E0A92137050EA0102B6
:102D1000F2D10A98ADEB000000F1200B600702D55C
:102D200024F4803401E04FF00109D94502DDA9EB1C
:102D30000B0000E0002000EB0B0141440890AAEBDF
:102D4000010AE00306D4DDE90F232146504600F0D6
:102D500063F806444FF0000908E009A911F80900DA
:102D6000DDE90F12904709F10109761CC145F4DB3A
:102D7000E0030CD5DDE90F232146504600F04CF866
:102D8000064404E0DDE90F1230209047761C0899D4
:102D9000481E08900029F5DC08E00A980A99007896
:102DA000491C0A91DDE90F129047761CBBF1000126
:102DB000ABF1010BF1DC21465046DDE90F2300F0B9
:102DC00019F806446D1C1BE6092801003031323326
:102DD0003435363738396162636465660000000057
:102DE0003031323334353637383941424344454641
:102DF000000000002DE9F041044600251E4617465C
:102E0000880404D405E039462020B0476D1C641EB8
:102E1000F9D52846BDE8F0812DE9F04104460025AA
:102E20001E469046C80301D5302700E020278804BD
:102E300004D505E041463846B0476D1C641EF9D5FF
:102E40002846BDE8F081000013B54FF6FF7301225C
:102E500069460248FEF7A6FC00981CBD2802002027
:102E6000FDF762FDFFF75AF9FEF70CFDFEF79AFD3C
:102E7000FEF7ECFDFEF71EFEFEF77AFDFEF736FECE
:102E8000012211491148FEF72DFC1148FEF7E4F824
:102E900008211048FEF7BEFA0C210E48FEF7BAFAD8
:102EA000FDF7E6FBFEF774FE0B4D0C4C0026287870
:102EB00010B12E70FFF7A0F820780028F7D0267008
:102EC00000F016F8F3E70000180000206802002068
:102ED000E8010020680100203A0000203B000020AB
:102EE0000246012000E05043491EC9B2FBD27047A0
:102EF00038B51DA228210020FEF76AFF1E480C24C9
:102F000000940268032328216420FEF725FF1BA2FA
:102F100032210020FEF75CFF1C4800940323026866
:102F200032216420FEF718FF19A214210020FEF7B9
:102F30004FFF1A4800940323B0F9002014216420A5
:102F4000FEF70AFF16A21E210020FEF741FF1848D7
:102F500000940323B0F900201E216420FEF7FCFE3C
:102F6000BDE83840FEF78ABE506F736974696F6EB2
:102F70005F583A200000000020000020506F736965
:102F800074696F6E5F593A20000000002400002031
:102F900059617720616E676C653A20003600002029
:102FA000506974636820616E676C653A20000000A8
:102FB000380000200068704770B596B0054614AB25
:102FC00001AA03A900F0DEF9002824D18DF84C00F5
:102FD0001D4C042615E000BF216806EBC00014ABB1
:102FE00008586A460BA900F0CDF9002813D103A9AF
:102FF0000BA800F0FAFB80B19DF84C00401C8DF846
:103000004C00217DC0B28142E6D8207D9DF84C1055
:1030100088420ED1042016B070BD9DF800009DF8C6
:103020000410884201D90220F5E79DF84C00A075F4
:10303000EBE713A9284600F05DFA0028EBD19DF8D4
:103040004C0060750020E6E7700000202DE9F0419B
:103050007F4C9AB0A57D207DA8427DD904212068AF
:1030600001EBC50119AB405810AA11A900F08AF96B
:1030700011A978A0FFF786FC00270DF1180833E0AE
:10308000208B0121B940084217D0222173A0FFF7FD
:1030900079FC384600F098FA011971A02431FFF745
:1030A00071FC22216DA0FFF76DFC384600F08CFA10
:1030B0002044243048F827000CE0384600F084FA19
:1030C0002044416A48F82710E07D08B365A000BF9E
:1030D000FFF758FC9DF84000401E874202D063A0D5
:1030E000FFF750FC7F1CFFB29DF840008742C7D31A
:1030F0005FA0FFF747FC00F09FFA607D0B2814D219
:10310000DFE800F0080D31384048525E6B788800E7
:1031100058A0DDE7206850F83500804704E02068BB
:1031200050F8351006988847064600F05FFA9DF87B
:10313000640001287DD050A0FFF724FC94F8EC0037
:1031400000280DD0D4F8F0100A20B1FBF0F200FBFB
:103150001212B1FBF0F100E002E048A0FFF712FC10
:103160001AB0BDE8F081206850F83520DDE906018D
:103170009047D9E7206806AE50F8353096E807004A
:103180009847D1E7206806AE50F8355096E80F0012
:10319000A847C9E70A980090206806AE50F8355055
:1031A00096E80F00A847BFE7DDE90A01CDE9000175
:1031B000206806AE50F8355096E80F00A847B3E7F0
:1031C0000AAB06AE93E807008DE80700206850F8C8
:1031D000355096E80F00A847A6E70AAE96E80F001C
:1031E0008DE80F00206806AE50F8355096E80F00C5
:1031F000A84799E70BAE96E80F0001AE86E80F00EE
:103200000A980090206806AE50F8355096E80F00F6
:10321000A84789E70CAE96E80F0002AE86E80F00DB
:10322000DDE90A01CDE90001206806AE50F835500D
:1032300000E003E096E80F00A84775E7E07D31461F
:1032400018B116A0FFF79EFB78E717A0FAE7000079
:10325000700000200D0A257328000000256300007F
:103260002573000030582558000000002C00000095
:1032700029000000256C64003B0D0A0046756E6352
:1032800074696F6E2052756E2054696D653A2564BD
:103290002E2531646D730D0A000000003D30582565
:1032A000583B0D0A000000003D256C753B0D0A00DF
:1032B000F0B50446002007460646054623782C2B29
:1032C00003D0292B04D01BB103E015B9012700E07E
:1032D00015B31EB1222B2BD0F7B92FE0A3F1300C80
:1032E000BCF1090F19D92D2B17D02B2B15D0A3F119
:1032F000610CBCF1050F10D9A3F1410CBCF1050F15
:103300000BD9582B09D0782B07D0222B0CD0202B8F
:103310001DD02C2B1BD0FF260CE05FB9612B00D3F6
:10332000203B01F8013B12E027B9012635460EE0AB
:10333000002567B100230B701670F0BD3DB15C2B0A
:1033400002D1401CC0B2641C237801F8013B401C30
:10335000C0B2641CB2E730B5002515700AE001F870
:10336000014B1478401C641CE4B214709C4201D3DD
:10337000012030BD0478202C01D0002CEFD10D703D
:10338000002030BD2DE9FF4F002582B0984604464D
:103390002F462E464FF0010BAA462A46A94615E0B5
:1033A000202910D002F07F03052B0CD202B9802215
:1033B00002F07F03042B01D12A290AD1521C0DF8F7
:1033C0000310D2B201E0852A04D0401C0178002904
:1033D000E6D162B102F07F0244A10DF80290684686
:1033E00000F003FA38B1012188F8001000224FF0F4
:1033F0000008234614E088F80090F7E708F1010080
:1034000000F0FF0813F8010F202801D02A2807D167
:10341000184600F077F9282802D02A2800D047461D
:103420001878282801D00028E8D10FB13C44641C4A
:1034300000273946207888B1282804D0292806D0CA
:1034400022280FD010E079B96D1CEDB20CE059B90B
:1034500025B16D1E15F0FF0501D00CE00127012EEE
:1034600032D039E049B100214DB12C280FD02028AD
:103470001FD028281DD07AB117E00121F4E72028B9
:1034800020D0039B18700398401C03901AE0521C34
:103490004FF0010BD2B20CE0BAF1050F05D20DF8D6
:1034A0000A000AF1010000F0FF0A0BF1010000F030
:1034B000FF0B012D06D1BBF1020F03D1761C4FF09B
:1034C000030BF6B2641CB5E70DF80A9007A1684635
:1034D00000F08BF900B9002604980670039880F874
:1034E000009006B03846BDE8F08F0000766F696442
:1034F000000000002DE9F04300248946314DB5B0AD
:10350000214622466B18491CC9B29A760A29F9D37A
:1035100003E000BF10F8011F91B101782829F9D10B
:10352000461C012733AA69463046FFF7C1FE064410
:103530009DF8CC0040B1012824D0FF2839D10BE000
:10354000012035B0BDE8F0839DF8000080B334A9B8
:10355000684600F0DFF808B10220F2E7204600F0EC
:1035600033F8284434994162288B07FA04F18843E0
:103570002883042029198876641CE4B20A2C18D9FF
:103580000320DEE7684600F045F900F10108204617
:1035900000F01AF841196846243100F032F9288BFE
:1035A00007FA04F108432919288381F81A80E3E710
:1035B000FFE73078292801D00028B3D189F80040EE
:1035C0000020BEE770000020024610B50020014632
:1035D000054B05E05C18491CA47EC9B22044C0B26A
:1035E0009142F7D310BD0000700000200948006828
:1035F0000169C943CA070849D1F8F02004D14FF640
:10360000FF731A44C1F8F020406A1044C1F8F0007A
:1036100070470000A801002070000020014901202F
:10362000C8757047700000200246012000E050433A
:10363000491EC9B2FBD2704707486FF0010102680A
:1036400011610268090CD162C16000680021416209
:103650000248C0F8F0107047A80100207000002058
:103660002DE9F041164D2888010426D51549C0B230
:10367000154F00260E54B9681248884704000FD031
:10368000104800F0D1F8012801D0040014D0012C1A
:1036900009D0022C09D0032C09D0042C0CD108E04D
:1036A000F868804708E009A004E00BA002E00DA044
:1036B00000E00FA0FFF766F92E80BDE8F081000062
:1036C0001A000020A802002070000020BAAFCAFD36
:1036D000B4EDCEF3210D0A00B2CECAFDB4EDCEF3A7
:1036E000210D0A00B2CECAFDCCABB6E0210D0A0016
:1036F000CEB4D5D2B5BDC6A5C5E4B5C4BAAFCAFD72
:10370000210D0A0010F8011F202901D10028F9D14C
:10371000C8B270472DE9F0430D4600244FF00A0966
:10372000264601462C600A78A2F13003092B14D9F1
:1037300003782D2B01D02B2B00D174B1A2F14103C2
:10374000052B0AD9582A05D012F0FF0F17D00120F7
:10375000BDE8F083012C02D0F9E7412A01D34FF0F4
:10376000100902782D2A04D02B2A04D0641CE4B25C
:1037700003E0022600E00126401C491CD3E707466F
:10378000B9F1100F01D084B112E0032C01D2022054
:10379000DEE73878302802D17878582801D0032025
:1037A000D6E7A41EE4B2BF1C01E00420D0E70CB1B0
:1037B000641EE4B23878A0F13001092901D88846A6
:1037C00001E0A0F1370821464846FFF72DFF2A689F
:1037D00008FB0020286017F8011F0029E7D1022EFE
:1037E00001D1404228600020B2E702780B789A426B
:1037F00001D00120704712B1401C491CF5E70020A0
:10380000704702780A700278002A02D0401C491CD6
:10381000F7E77047002102781AB1491CC9B2401C71
:10382000F9E7084670470000F0B58DB004461E2346
:103830006A4602A9FFF78FFD0190002872D19DF81A
:103840000000271800263E4C8DF800609DF800000F
:1038500054F8201002A8FFF7C8FF38B19DF8000007
:10386000401CC0B28DF800000728EFD39DF800007F
:103870000425344C072855D2DFE800F00404395AF7
:10388000605F5E0030A0FFF77DF830A0FFF77AF8A8
:103890003EA0FFF777F84DA0FFF774F85BA0FFF7A5
:1038A00071F86AA0FFF76EF878A0FFF76BF886A0B2
:1038B000FFF768F88BA0FFF765F893A0FFF762F8B1
:1038C00097A0FFF75FF89CA0FFF75CF8A1A0FFF7B7
:1038D00059F8A7A0FFF756F8B3A0FFF753F8C0A018
:1038E000FFF750F8CBA0FFF74DF8D7A01BE016A0CC
:1038F000FFF748F8E4A0FFF745F88DF800600BE00B
:10390000216805EBC0000958EFA0FFF73BF89DF8D0
:103910000000401C8DF80000217D9DF800008142D0
:10392000EED856E257E2FFF72DF800200DB0F0BDBB
:1039300005A0FFF727F8CBE12CE20CE2EBE1000059
:103940003C000020700000200D0A00002D2D2D2DC0
:103950002D2D2D2D2D2D2D2D2D2D2D2D2D2D2D2D97
:103960002D2D2D2D55534D4152542056332E332D90
:103970002D2D2D2D2D2D2D2D2D2D2D2D2D2D2D2D77
:103980002D2D2D2D2D2D2D200D0A00002020202045
:1039900055534D415254CAC7D3C9414C49454E5461
:1039A000454BBFAAB7A2B5C4D2BBB8F6C1E9C7C9D7
:1039B000B5C4B4AEBFDAB5F7CAD4BBA5BDBBD7E9B1
:1039C000BCFE2CCDA8B9FD200D0A0000CBFC2CC4F8
:1039D000E3BFC9D2D4CDA8B9FDB4AEBFDAD6FACA16
:1039E000D6B5F7D3C3B3CCD0F2C0EFC3E6B5C4C8E5
:1039F000CEBACEBAAFCAFD2CB2A2D6B4D0D02ED297
:103A0000F2B4CB2CC4E3BFC90D0A0000D2D4CBE67C
:103A1000D2E2B8FCB8C4BAAFCAFDB5C4CAE4C8EBB8
:103A2000B2CECAFD28D6A7B3D6CAFDD7D628313024
:103A30002F3136BDF8D6C62CD6A7B3D6B8BACAFD34
:103A400029A1A2D7D6B7FBB4AE0D0A00A1A2BAAF86
:103A5000CAFDC8EBBFDAB5D8D6B7B5C8D7F7CEAA76
:103A6000B2CECAFD292CB5A5B8F6BAAFCAFDD7EEBD
:103A7000B6E0D6A7B3D63130B8F6CAE4C8EBB2CEBA
:103A8000CAFD2CB2A2D6A7B3D60D0A00BAAFCAFDA2
:103A9000B7B5BBD8D6B5CFD4CABE2ED6A7B3D6B28B
:103AA000CECAFDCFD4CABEBDF8D6C6C9E8D6C3B902
:103AB000A6C4DC2CD6A7B3D6BDF8D6C6D7AABBBB46
:103AC000B9A6C4DC2E0D0A00BCBCCAF5D6A7B3D675
:103AD0003A7777772E6F70656E6564762E636F6DBB
:103AE0000D0A000055534D415254D3D037B8F6CF8C
:103AF000B5CDB3C3FCC1EE28B1D8D0EBD0A1D0B4C2
:103B0000293A0D0A000000003F3A20202020202002
:103B1000BBF1C8A1B0EFD6FAD0C5CFA20D0A000004
:103B200068656C703A202020BBF1C8A1B0EFD6FACE
:103B3000D0C5CFA20D0A00006C6973743A20202012
:103B4000BFC9D3C3B5C4BAAFCAFDC1D0B1ED0D0A68
:103B50000A00000069643A2020202020BFC9D3C396
:103B6000BAAFCAFDB5C44944C1D0B1ED0D0A0A00CF
:103B70006865783A20202020B2CECAFD3136BDF8E3
:103B8000D6C6CFD4CABE2CBAF3B8FABFD5B8F12B7B
:103B9000CAFDD7D6BCB4D6B4D0D0BDF8D6C6D7AA45
:103BA000BBBB0D0A0A0000006465633A2020202098
:103BB000B2CECAFD3130BDF8D6C6CFD4CABE2CBAFB
:103BC000F3B8FABFD5B8F12BCAFDD7D6BCB4D6B47A
:103BD000D0D0BDF8D6C6D7AABBBB0D0A0A000000DC
:103BE00072756E74696D653A312CBFAAC6F4BAAFAE
:103BF000CAFDD4CBD0D0BCC6CAB13B302CB9D8B1E9
:103C0000D5BAAFCAFDD4CBD0D0BCC6CAB13B0D0A21
:103C10000A000000C7EBB0B4D5D5B3CCD0F2B1E008
:103C2000D0B4B8F1CABDCAE4C8EBBAAFCAFDC3FB91
:103C3000BCB0B2CECAFDB2A2D2D4BBD8B3B5BCFC24
:103C4000BDE1CAF82E0D0A002D2D2D2D2D2D2D2D67
:103C50002D2D2D2D2D2D2D2D2D2D2D2D2D2D2D2D94
:103C60002D2D414C49454E54454B2D2D2D2D2D2D9F
:103C70002D2D2D2D2D2D2D2D2D2D2D2D2D2D2D2D74
:103C80002D2D2D200D0A00002D2D2D2D2D2D2D2D0E
:103C90002D2D2D2D2D2D2D2D2D2D2D2D2D2D2D2D54
:103CA0002DBAAFCAFDC7E5B5A52D2D2D2D2D2D2D76
:103CB0002D2D2D2D2D2D2D2D2D2D2D2D2D2D2D2D34
:103CC0002D2D2D2D200D0A0025730D0A000000005A
:103CD00042A0FEF757FE8DF8006016E0216805EB64
:103CE000C0000BAB08580AAA02A9FFF74BFB9DF8CE
:103CF0000010206850F8312002A948A0FEF742FECB
:103D00009DF80000401C8DF80000217D9DF800000A
:103D10008142E3D85DE0AFF2D030FEF733FE6A4671
:103D200002A93846FFF7C4FA9DF80000002843D1E5
:103D300001A902A8FFF7EEFC8DF8000010B10428DD
:103D40003AD102E03AA001991CE03CA0FEF71AFE2D
:103D50000120E0753DE038A0FEF714FE6A4602A996
:103D60003846FFF7A5FA9DF8000028BB01A902A874
:103D7000FFF7D0FC8DF8000010B104281CD104E03E
:103D800033A00199FEF7FEFD23E034A0FEF7FAFD13
:103D9000E6751EE028A0FEF7F5FD6A4602A9384642
:103DA000FFF786FA9DF8000030B901A902A8FFF7D5
:103DB000B1FC8DF8000008B10220B7E5019810F0C1
:103DC000FF0084F8EC0001D029A000E02FA0FEF74E
:103DD000D9FD19A0A7E50120A8E500002D2D2D2D66
:103DE0002D2D2D2D2D2D2D2D2D2D2D2D2D2D2D2D03
:103DF0002D2D2D2D2DBAAFCAFD204944202D2D2D5E
:103E00002D2D2D2D2D2D2D2D2D2D2D2D2D2D2D2DE2
:103E10002D2D2D2D2D2D2D2D200D0A0025732069E2
:103E2000642069733A0D0A3058253038580D0A005D
:103E30004845583A305825580D0A00003136BDF82B
:103E4000D6C6B2CECAFDCFD4CABE210D0A0000002C
:103E50004445433A256C750D0A0000003130BDF829
:103E6000D6C6B2CECAFDCFD4CABE210D0A0000000C
:103E700052756E2054696D652043616C63756C6189
:103E800074696F6E204F4E0D0A00000052756E204F
:103E900054696D652043616C63756C6174696F6E04
:103EA000204F46460D0A00000160704700000000E8
:103EB00000000000010203040607080900000000DA
:103EC00001020304000000000000000000000000E8
:103ED000000000003F400000000000000000300033
:103EE000400030004000000009000BC03D000BC046
:103EF0003D00090018C024407FE0224031800000CE
:103F0000180024C01B000D803240018003801C403B
:103F100027401C80074000401000600000000000A7
:103F2000000000000000000000001F802040402032
:103F30000000402020401F80000000000900060013
:103F40001F80060009000000040004003F800400F8
:103F500004000000001000600000000000000000ED
:103F600004000400040004000400000000000040FD
:103F70000000000000000000002001C00600380022
:103F8000400000001F802040204020401F80000093
:103F9000000010403FC000400000000018C0214059
:103FA000224024401840000010802040244024403B
:103FB0001B80000002000D0011003FC00140000006
:103FC0003C80244024402440238000001F80244063
:103FD00024403440038000003000200027C0380017
:103FE000200000001B802440244024401B8000004F
:103FF0001C0022C0224022401F8000000000000060
:104000000840000000000000000000000460000004
:1040100000000000000004000A0011002080404061
:1040200009000900090009000900000000004040E3
:10403000208011000A000400180020002340240002
:10404000180000001F802040274029401F4000002A
:10405000004007C039000F0001C0004020403FC0B1
:10406000244024401B8000001F802040204020402E
:104070003080000020403FC0204020401F800000D2
:1040800020403FC024402E4030C0000020403FC0B0
:1040900024402E00300000000F00108020402240FD
:1040A0003380020020403FC0040004003FC0204095
:1040B000204020403FC020402040000000602020E1
:1040C00020203FC02000200020403FC024400B00A3
:1040D00030C0204020403FC020400040004000C091
:1040E0003FC03C0003C03C003FC0000020403FC038
:1040F0000C4023003FC020001F8020402040204073
:104100001F80000020403FC0244024001800000011
:104110001F802140214020E01FA0000020403FC020
:104120002440260019C0004018C0244024402240EA
:1041300031800000300020403FC0204030000000AF
:1041400020003F80004000403F80200020003E00D3
:1041500001C0070038002000380007C03C0007C03D
:1041600038000000204039C0060039C0204000005F
:104170002000384007C0384020000000304021C0F7
:104180002640384020C00000000000007FE04020B2
:1041900040200000000070000C0003800040000080
:1041A0000000402040207FE00000000000002000D0
:1041B000400020000000000000100010001000105F
:1041C000001000100000000040000000000000008F
:1041D000000002800540054003C0004020003FC0B1
:1041E00004400440038000000000038004400440B9
:1041F0000640000000000380044024403FC000400F
:10420000000003800540054003400000000004401A
:104210001FC0244024402000000002E0055005504B
:104220000650042020403FC00440040003C000406A
:104230000000044027C000400000000000100010F3
:10424000041027E00000000020403FC001400700AC
:1042500004C00440204020403FC000400040000017
:1042600007C0040007C0040003C00000044007C0EA
:104270000440040003C000400000038004400440E8
:1042800003800000041007F0045004400380000085
:10429000000003800440045007F00010044007C0F1
:1042A00002400400040000000000064005400540F4
:1042B00004C00000000004001F8004400040000013
:1042C000040007800040044007C0004004000700CD
:1042D00004C0018006000400060001C0070001C000
:1042E00006000000044006C0010006C004400000B3
:1042F0000410071004E001800600040000000440E0
:1043000005C00640044000000000000004007BE0FF
:1043100040200000000000000000FFF0000000004E
:10432000000040207BE0040000000000400080000E
:1043300040002000200040000000000000000000BD
:1043400000000000000000000000000000001FCC82
:10435000000C0000000000000000080030006000B9
:104360000800300060000000022003FC1E20022034
:1043700003FC1E200220000000000E1811043FFF65
:1043800010840C78000000000F0010840F3800C06B
:10439000077818840078000000780F8410C4112476
:1043A0000E9800E400840008080068007000000017
:1043B000000000000000000000000000000007E016
:1043C00018182004400200000000400220041818C1
:1043D00007E00000000000000240024001800FF0F2
:1043E00001800240024000000080008000800FF841
:1043F00000800080008000000001000D000E000021
:10440000000000000000000000000080008000802C
:1044100000800080008000800000000C000C000084
:10442000000000000000000000000006001800600E
:104430000180060018002000000007F008081004A2
:104440001004080807F000000000080408041FFC1E
:10445000000400040000000000000E0C10141024E2
:10446000104411840E0C000000000C1810041104FC
:10447000110412880C700000000000E003200424E6
:1044800008241FFC0024000000001F981084110461
:104490001104108810700000000007F00888110453
:1044A000110418880070000000001C00100010FCAF
:1044B00013001C001000000000000E38114410848E
:1044C000108411440E38000000000700088C1044CE
:1044D0001044088807F00000000000000000030CF2
:1044E000030C0000000000000000000000010106B5
:1044F00000000000000000000000008001400220D9
:1045000004100808100400000220022002200220EB
:1045100002200220022000000000100408080410FD
:10452000022001400080000000000E001200100C6C
:10453000106C10800F00000003E00C1813E414242A
:1045400017C4082807D000000004003C03C41C4026
:10455000074000E4001C000410041FFC11041104B7
:1045600011040E880070000003E00C181004100401
:10457000100410081C10000010041FFC100410048C
:104580001004080807F0000010041FFC11041104B7
:1045900017C410040818000010041FFC11041100B7
:1045A00017C010000800000003E00C1810041004ED
:1045B00010441C780040000010041FFC1084008090
:1045C000008010841FFC10040000100410041FFC65
:1045D000100410040000000000030001100110018D
:1045E0001FFE10001000000010041FFC11040380C7
:1045F0001464181C1004000010041FFC10040004B4
:1046000000040004000C000010041FFC1F0000FC4C
:104610001F001FFC1004000010041FFC0C0403000A
:1046200000E010181FFC100007F008081004100428
:104630001004080807F0000010041FFC108410800C
:10464000108010800F00000007F0081810241024BC
:10465000101C080A07F2000010041FFC11041100CE
:1046600011C011300E0C000400000E1C1104108447
:10467000108410441C3800001800100010041FFCA7
:10468000100410001800000010001FF810040004AF
:10469000000410041FF8100010001E0011E0001CA0
:1046A000007013801C0010001FC0103C00E01F00B1
:1046B00000E0103C1FC000001004180C163401C0AC
:1046C00001C01634180C100410001C00130400FC68
:1046D00013041C00100000000804101C1064108457
:1046E00013041C04101800000000000000007FFEEE
:1046F0004002400240020000000030000C00038035
:104700000060001C00030000000040024002400264
:104710007FFE0000000000000000000020004000BC
:1047200040004000200000000001000100010001E5
:1047300000010001000100010000400040002000D5
:104740000000000000000000000000980124014467
:104750000144014400FC000410001FFC0088010417
:10476000010400880070000000000070008801044F
:1047700001040104008800000000007000880104AA
:10478000010411081FFC0004000000F8014401446A
:104790000144014400C800000000010401040FFCB2
:1047A0001104110411001800000000D6012901298C
:1047B000012901C90106000010041FFC008401004A
:1047C0000100010400FC000400000104190419FCAC
:1047D00000040004000000000000000300010101CB
:1047E000190119FE0000000010041FFC0024004005
:1047F00001B4010C010400000000100410041FFCAF
:104800000004000400000000010401FC0104010098
:1048100001FC0104010000FC010401FC0084010012
:104820000100010400FC0004000000F80104010480
:104830000104010400F80000010101FF00850104EA
:10484000010400880070000000000070008801046E
:104850000104010501FF00010104010401FC0084C1
:104860000104010001800000000000CC01240124AB
:10487000012401240198000000000100010007F854
:104880000104010400000000010001F8000400041C
:104890000004010801FC0004010001800170000C0B
:1048A000001001600180010001F0010C003001C026
:1048B0000030010C01F0010000000104018C0074C3
:1048C0000170018C01040000010101810171000EE1
:1048D000001801600180010000000184010C013416
:1048E00001440184010C00000000000000000000F1
:1048F00001003EFC400240020000000000000000F9
:10490000FFFF0000000000000000400240023EFCEB
:104910000100000000000000000060008000800036
:1049200040004000200020003F000000646563005C
:104930006964000072756E74696D650068656C70FD
:10494000000000006C697374000000006865780066
:10495000766F6964204C45445F5465737428696EB2
:104960007420666C61672900766F696420777269CC
:1049700074655F61646472287533322061646472A7
:104980002C7533322076616C29000000753332209B
:10499000726561645F61646472287533322061649A
:1049A00064722900C449000800000020680100006A
:1049B00018060008144A000868010020080A0000D0
:1049C000D42900084132018210031524F42924015E
:1049D000101328491B083C041A44041A30041A4CCA
:1049E000041A2C041A340413B52F1B088C0813A9BD
:1049F0003E1B0868081365181B085008225814202D
:104A00001D361B08B920134D301B08610C0A140316
:044A10005F01CD0075
:040000050800018965
:00000001FF
